:020000040800F2
:1000000038080020A9010008C14600083739000857
:1000100000000000000000000000000000000000E0
:10002000000000000000000000000000C5460008BD
:100030000000000000000000C3460008C74600089A
:10004000BB010008BB010008BB010008BB010008A0
:10005000BB010008BB010008BB010008BB01000890
:10006000BB010008BB010008BB010008BB01000880
:10007000BB010008BB010008BB010008BB01000870
:10008000BB010008D1460008BB01000800000000C9
:10009000BB010008BB010008BB010008393900089A
:1000A000BB010008BB010008BB010008014F0008AC
:1000B000BB010008BB010008BB010008BB01000830
:1000C00000F002F800F061F812A030C808382418D7
:1000D0002D18AC4201D100F058F80FCCA246AB4627
:1000E0000CA730CF2D1B083F3F197C427F1E544484
:1000F0002D090426F441641EAC4201D300F045F8FA
:100100000126334200D0FB1A3343984754465D46DC
:10011000DFE700006862000088620000103A02D346
:1001200078C878C1FAD8520701D330C830C101D598
:1001300004680C6070470000704700000023002432
:1001400000250026103A01D378C1FBD8520700D30E
:1001500030C100D50B60704710B5662902D106F09A
:1001600069F810BD642902D100F0FEF810BD00202E
:1001700010BD1FB500F0FCFE04000020002105F0BA
:10018000E9FEE0601FBD10B510BD01F0DDFA1146BB
:10019000FFF7EFFF04F0BCFE01F0F5FA03B4FFF740
:1001A000F2FF03BC01F0A0FB074880470748004767
:1001B000FEE7FEE7FEE7FEE7FEE7FEE70448054947
:1001C000054A064B70470000CF460008C1000008F2
:1001D00038020020380800203804002038040020AD
:1001E000FEB5044610460D46184373D0A6468C460D
:1001F0000020A41A01469D4167D3664600270124CA
:100200003D46B61A9D4102D313463A46212465461F
:1002100076462F04360C3E432D0CB61A9D4104D36E
:10022000150C1B042B4312041034654676462F062A
:10023000360A3E432D0AB61A9D4104D3150E1B0201
:100240002B4312020834654676462F0736093E4393
:100250002D09B61A9D4104D3150F1B012B43120122
:10026000241D65467646AF07B6083E43AD08B61A6C
:100270009D4104D3950F9B002B439200A41C65461F
:100280007646EF0776083E436D08B61A9D411AD3AD
:1002900092185B41641C16E0001876466546494199
:1002A000B71A9D410191009009D36046B11A984157
:1002B0008E468446009801990025401C6941DD075F
:1002C00052082A435B08641EE6D57246634603B0B3
:1002D000F0BDFFE72046284307D00020C043014679
:1002E000C046C04622462B46F1E700200146F7E70C
:1002F0000FB41CB5074B06AA7B44694600900598CD
:1003000000F0C1FD0020694600F0D0FD1CBC08BC17
:1003100004B01847B10B000070B504468569006849
:10032000C10601D5302600E02026C00707D070BDE9
:1003300062683046A1689047206A401C20626D1EAA
:10034000F6D570BD70B5044685690078C00707D141
:1003500070BD6268A16820209047206A401C20621E
:100360006D1EF6D570BD0000F7B500257529106823
:10037000009914A611D0C046C046002802DA4042B7
:1003800011A608E0009909688A0701D50FA602E0C6
:10039000490704D50EA6012501E0C046C046009FCE
:1003A0000024243704E000F086FD30313955641C08
:1003B0000028F8D12B4632462146009800F0FCFA7E
:1003C000FEBD0000000000002D0000002B0000001A
:1003D00020000000F3B50446002081B020622046D2
:1003E000E168884700287DD0252802D06268A1688E
:1003F00083E0454F00257F442046E1688847202858
:10040000064608DB312E06D2B819203800780028BD
:1004100001D00543F0E7A80701D50420854300205B
:10042000E0610746A0612A2E0AD0304605F074FD2F
:10043000002827D0B8000019303E0090866119E0EE
:100440000298BA00121902C8916102902046E16830
:100450008847012F064617D1E06900281FDA2020BF
:1004600085431CE000980A2180694843009980195F
:10047000303888612046E1688847064605F04CFD23
:100480000028EFD1012F0AD02E2E08D12046E16896
:1004900088470646202005437F1C022FC3DBA06946
:1004A000002803DA4042A06101200543E80701D09B
:1004B00010208543002E24D030464138192803D817
:1004C0000120C00205432036204625603146029AAD
:1004D0001546FFF741FE00280CD0012807D0ED1D7E
:1004E000E80800E00DE0C0000830029077E72D1D1D
:1004F000029574E762683046A1689047206A401C04
:100500006CE7206AFEBD00004A5E000030B5441C66
:1005100003E00178401C00290DD08107F9D10B4B75
:10052000DD0104C8D11A91432940FAD0001B0A0604
:1005300003D0C01E30BD001B30BD0A0401D0801E98
:1005400030BD0902FCD0401E30BD00000101010198
:1005500001E004C0091F0429FBD28B0701D50280EA
:10056000801CC90700D00270704700290BD0C30758
:1005700002D00270401C491E022904D3830702D511
:100580000280801C891EE3E70022EEE70022DFE7FD
:10059000002203098B4273D3030A8B4258D3030B07
:1005A0008B423CD3030C8B4221D312E003460B4316
:1005B0007FD4002243088B4274D303098B425FD35C
:1005C000030A8B4244D3030B8B4228D3030C8B4288
:1005D0000DD30902FF2212BA030C8B4202D312126E
:1005E000090265D0030B8B4219D300E0090AC30B43
:1005F0008B4201D3CB03C01A5241830B8B4201D3F0
:100600008B03C01A5241430B8B4201D34B03C01AD8
:100610005241030B8B4201D30B03C01A5241C30A50
:100620008B4201D3CB02C01A5241830A8B4201D3C1
:100630008B02C01A5241430A8B4201D34B02C01AAB
:100640005241030A8B4201D30B02C01A5241CDD250
:10065000C3098B4201D3CB01C01A524183098B429B
:1006600001D38B01C01A524143098B4201D34B0184
:10067000C01A524103098B4201D30B01C01A5241E7
:10068000C3088B4201D3CB00C01A524183088B426E
:1006900001D38B00C01A524143088B4201D34B0057
:1006A000C01A5241411A00D20146524110467047C9
:1006B0005DE0CA0F00D04942031000D340425340CE
:1006C0009C46002203098B422DD3030A8B4212D38E
:1006D0008901FC2212BA030A8B420CD389019211C0
:1006E0008B4208D3890192118B4204D389013AD0FD
:1006F000921100E08909C3098B4201D3CB01C01AD2
:10070000524183098B4201D38B01C01A52414309E4
:100710008B4201D34B01C01A524103098B4201D3D2
:100720000B01C01A5241C3088B4201D3CB00C01A3F
:10073000524183088B4201D38B00C01A5241D9D257
:1007400043088B4201D34B00C01A5241411A00D2D8
:1007500001465241104663465B1001D34042002BD4
:1007600000D54942704763465B1000D3404201B553
:100770000449002802DC491C084000E00846C04645
:10078000C04602BDFFFFFF7F704770477047000003
:100790000121C9050123411842001B06D3185B0E35
:1007A0000AD0C1100722D206891840075242D1420E
:1007B00001D5520089187047090208D50146002A60
:1007C00003D0C10FC907002070471046704742028E
:1007D00002D0002002497047072109050143F4E7D0
:1007E0000000F87FF0B5FF252D04C609C209FF27D8
:1007F00004462E400137CB093E4348402A402B4057
:100800000746002A6BD0002B69D0AA4267D0AB42C2
:1008100065D0002800DA32460125ED0529432C4336
:1008200009022002090AD21A4B0C7F24E31A434C16
:10083000000A7C44E35C7D242404121914145B0038
:10084000A218884201D3521C00E0400049420C46E5
:100850005C4324115C43DB016415E318040A5C4328
:10086000C502200D0C4644436419250A5D43230349
:10087000EC0C0D46654300030019EB184C42A342F3
:1008800001D35B18401CD4052018002B07D05B0057
:10089000C91804D3401C002901D1400840003F2161
:1008A00089048A4209D3002A08DC1106090F04D002
:1008B000032149074018C00FC007F0BD01224100C5
:1008C000120689187F2252069142F6D20521490765
:1008D000C84201D59010F0BDFF20C005F0BD002F2B
:1008E00000DA32461648AA4207D2AB4205D21902B4
:1008F000090E17D0F80FC007F0BDFF2563002D06C5
:10090000AB42F9D84900A942F6D8AB4201D1A9427D
:10091000F2D0A94201D1002101E061004908D005CF
:100920000843F0BD1102090EFBD0FF200243D005A1
:10093000F0BD0A460146104654E700001F5A000069
:100940000000C07F1F22030C02D10F2200041CD024
:10095000030E01D10002083A030F01D10001121F5A
:10096000830F01D18000921E002801DB4000521E3F
:10097000D2055118021251181922904004D3491C73
:10098000002801D14908490008467047C10FC9072E
:1009900000D04042012292071143D3E70121890789
:1009A000D0E710B500F0E8FA006810BD10B50446B5
:1009B00000F0E2FA046010BDFFB504460D4681B0B8
:1009C000243000902168880604D51022E069914304
:1009D000216000E00120A84201DD471B00E0002764
:1009E0000498A1697A191018081AA0612078C00625
:1009F00002D42046FFF790FC002608E003986268C6
:100A0000A168805D9047206A401C761C2062049893
:100A10008642F3DB2078C0060AD52046FFF77CFC2F
:100A200006E06268A16830209047206A401C20627E
:100A300038467F1E0028F4DC07E000986268A16851
:100A4000405D9047206A401C206228466D1E0028A9
:100A5000F3DC2046FFF776FC2078000602D5022062
:100A600005B0F0BD0120FBE7FFB50C461E468FB078
:100A700003CA089009914F007D0D00D16D1E002121
:100A800008460020C0460321099A89050840002A2B
:100A900003DA8200801840080840800D01280A907F
:100AA00002DD0020C0430A90089807430DD0F048AB
:100AB000F049281848430714189800281DD075429B
:100AC000291E1DDD0A9842421BE01898012802D019
:100AD0000020302104E00020F24305E02154401CB6
:100AE000B042FBDB30460022189B002121540F99B5
:100AF0008B600A60486013B0F0BDBD1B6D1CDFE762
:100B00000A9A002900DA69420BA800F0BBFA0BAB85
:100B100007CB03AB07C30899099800F01FFB6B468E
:100B200007C30146D4480918002D00910BDDD249B6
:100B300003980A9A49424018002303A90390684683
:100B400000F07CFD08E003990A9A0023081803A925
:100B50000390684600F01CFD6B4607C30004000CC0
:100B600003D00020C043410800E01046189A002A34
:100B700003D00022009215461EE0751E05D400F039
:100B8000FFF9303262556D1EF9D5012208430796F0
:100B900002D000227F1C04E02078302801D10022FE
:100BA0007F1E002A069787D01EE0112D07DA00F07D
:100BB000E7F9303262556D1C02460A43F5D108430D
:100BC00003D00098002819D00EE00021681E05E02F
:100BD000235C625C63542254401E491C8142F7DB53
:100BE000A81B401E07950690079A18990020A0544C
:100BF0000F98079B069A81600CC07CE711260020A5
:100C0000189059E7D21DF0B50D460446D10893B0AF
:100C1000C90003C90C900D9105F050F902460D98DA
:100C2000C00F01D02D2007E02068810701D52B20BF
:100C300002E04007C00F4001032A0F9001D0072AAD
:100C400005DB03462946204600F0D8F90EE120785E
:100C5000800601D5E76900E006272846652D04D007
:100C6000662814D0672D69D12DE00020112F009047
:100C700001DB112300E07B1C0CAA03A910A8FFF7DD
:100C8000F3FE1199002610987D1C0E9142E0012080
:100C90003B460CAAC0070B900120009003A910A8A6
:100CA000FFF7E2FE119D12981099002600280E957C
:100CB00001D1781C0D18781B02D446427D1C761E8B
:100CC000E81B00903AE0012F00DA01270020112FE5
:100CD000009001DD112300E03B460CAA03A910A8F7
:100CE000FFF7C2FE11993D46109800260E9121781B
:100CF00009070BD40E99A94200DA0D4603A9012D6C
:100D000004DD4A19203AD27F302A06D0B84201DAEF
:100D1000011D04DA012100910FE06D1EEFE70028AC
:100D200002DC86192D1A03E0411CA94200DD0D46A4
:100D3000801B401C00900120C0070B90207800070A
:100D400005D40098A84202DB0020C0430090694609
:100D50000020C8720B98012102AF0337C9078842EF
:100D600025D0022010902B2011900B9800280BDA30
:100D700040420B902D20119006E00B9800F09BF85C
:100D800030317F1E0B9039701099481E0029109049
:100D9000F3DC0B980028F0D111987F1E3870208862
:100DA000000501D5452000E065207F1E387001A8B0
:100DB000C01BC01D0B900F98002800D001204119C6
:100DC0000098C01709180B980818A169081A401E46
:100DD000A0612078C00602D42046FFF79DFA0F9844
:100DE000002805D06268A1689047206A401C2062F4
:100DF0002078C00625D52046FFF78EFA21E0002E88
:100E000007DB0E98B04204DD03A86268805DA1682C
:100E100002E06268A16830209047206A761C401C7E
:100E200020620098401E002800900AD100F0A0F82F
:100E3000C06862680168405CA1689047206A401CF5
:100E4000206228466D1E0028D9DC07E062683878E9
:100E5000A1687F1C9047206A401C20620B99481EA5
:100E600000290B90F2DC2046FFF76CFA032042E6E3
:100E700001FCFFFF104D0000E1DFFFFF01694A1C8C
:100E800002610878704700B58FB00291002105918A
:100E90000549019379440391114604906846FFF790
:100EA00099FA0FB000BD0000E5FFFFFF0A6810705F
:100EB000521C0A60704701468008081A020910187F
:100EC000020A1018020C1018C008820012185200F2
:100ED000891A01E0401C0A390A29FBD27047000038
:100EE00030B5C30D1906214A090E31D0FF292FD084
:100EF00000283ADB01025002014301207D33C34048
:100F000000D24908012080071724091A240649083D
:100F100082102343FF252D064C00211A04D4891A80
:100F200002D45400201800E0214652085B19F3D582
:100F30001A220446944007D382068A4203D18021B4
:100F40008030884300E08030C009D905081830BDE2
:100F5000FF2904D04100FAD0C00FC00730BD4102C4
:100F600001D0104630BD0028FCDAFAE70000C07F4F
:100F700000487047300000200048704710000020F3
:100F80000B4670B5024689078008084319469D083C
:100F9000141AA94125090807054308092C194841D5
:100FA000250A01060D43010A2C194141200C0D04AC
:100FB00028430D0C00194D41002140194D41C00836
:100FC00069070843E908840F8D002543840024182D
:100FD0004D4124196D41121BAB4107E00925ED433A
:100FE0002C11521963410024401C61411C460A2502
:100FF0000026551BB441F1D270BD0000F8B51F4664
:10100000044601230068DB02032601461840072A34
:1010100005DB002801D017A506E017A504E000288D
:1010200001D016A500E016A5102081432160A0691B
:10103000C01E002FA06101D0401EA0612046FFF716
:101040006BF9002F09D038466268A1689047206A82
:10105000401C2062C01C206206E0206AFAE7626839
:101060002878A1686D1C9047761EF8D22046FFF7BD
:1010700069F9F8BD4E414E006E616E00494E460062
:10108000696E6600F7B516468AB0334878446C46F8
:1010900003467C33C06F5A689B680DC42E48784461
:1010A000763003AC0DC80DC43720C00108183721B5
:1010B0001B30FFF77BFA05460C46803D1B3C02D5F2
:1010C0006442012000E000200027099010E0E007C2
:1010D0000CD00C2020497843794432464C394118D1
:1010E0006846012300F054FA6B4607C364107F1C66
:1010F000002CECD1184F7F442E3F16E0E80712D0A9
:101100002001C0190EC80691089307920068F042AA
:1011100001D1981908903246012306A903A800F0CE
:1011200037FA03AB07C36D10641C002DE6D1099894
:10113000002806D032466946012303A800F07EFA53
:1011400005E001233246694603A800F021FA0A9B14
:1011500007C30DB0F0BD0000085200000346400078
:101160000A4610B5400D0BD00121C9070F24A40277
:1011700000191C0364082143540D2143D20207E0E7
:1011800000210120F2E7D40F490021435200401E04
:101190000029F8DADB0FDB07184310BDFFB50D4659
:1011A000144685B04868516804F06FFE00910190C4
:1011B000A868A16804F069FE02910390A8686168BC
:1011C00004F063FE029A12188242029201D20120B8
:1011D00000E00020019A0B18D2180028019202D0DA
:1011E0008A4202D903E08A4201D2012000E00020B5
:1011F0000099081800906868A16804F046FE029AF9
:1012000012188242029201D2012000E00020019ACD
:101210000B18D2180028019202D08A4202D903E0AA
:101220008A4201D2012000E00020009908180090B5
:101230002868216840004900400849084018FA49D8
:10124000471814E001994000C90F08430090019825
:1012500002994000C90F0843019002980399400089
:10126000C90F08430290039840007F1E0390009826
:101270000028E7DA0898002801D0EC4E00E00026AC
:10128000B74201DA012000E00020002804902AD0B3
:10129000F71BF806C00E15D0029B2021091A039AED
:1012A0008B401A430392029A019BC2408B401A431F
:1012B0000292019A009BC2408B4000991A4301920E
:1012C000C14000917B110DD06F460320C11A03D598
:1012D00000218200B95003E08A008100BA587A5098
:1012E000401EF3D5374603980299002800D001200C
:1012F000014308980291002808460CD0002800D02D
:1013000001200199019A490508430121D20AC90225
:10131000D202019200E001210E9B0122D207012B93
:1013200002D0002B03D013E0002807D120E0904228
:1013300004D890420CD1019B0B4209D0019B591853
:10134000019105D10099491C009101D17F1C0092A7
:1013500000280DD0102108460020C046049800281F
:1013600006D00F98002803D0082108460020C04668
:1013700028682168019B009A4840C10F0598C90759
:1013800039430EC009B0F0BDFFB587B0099A08987F
:1013900008995368926840688968964600220393CA
:1013A00017469446089A12685300099A5B08126817
:1013B000520052089A1A9E4BD4180A9A002A01D059
:1013C000352200E0402206920022012315460492B5
:1013D000DB07059324E0002D05D175460346039EE7
:1013E0004D1BB34109D375466646039B491B049DBB
:1013F0009841059B7519AC465F4163463B4308D055
:10140000059B049EDD0776082E435B080496059332
:1014100001E0521E641EC50FED0749184041521CE1
:10142000069B9A42D7DB002D04D17546039A6B1AAE
:10143000824101D203200CE0039A0B466B404240EC
:10144000134303D0014303D0012002E0022000E057
:101450000020614601910021009702910A9900291C
:1014600005D0614640020143704B019102E08007C4
:10147000002302909C4201DA012000E000200700D6
:101480003AD01A1BD006C00E15D0029D2021019C17
:10149000091AC5408C402543029C8C4000D0012491
:1014A0002543019C0295009DC4408D4000992C432A
:1014B0000194C140009154111DD06D4602210022BB
:1014C00002290CD10320001B07E0002804DB860062
:1014D000AE59002E00D00122401C0328F5DB081B6A
:1014E00002D588002A5004E08000285810438A0062
:1014F000A850491EE3D51C460A98002802980CD033
:10150000002800D001200199019A490508430121D2
:10151000D20AC902D202019200E00121109B0122ED
:10152000D207012B02D0002B03D013E0002807D1F3
:101530001FE0904204D890420CD1019B0B4209D08D
:10154000019B5918019105D10099491C009101D1C5
:10155000641C009200280CD0102108460020C046D0
:10156000002F06D01198002803D00821084600203B
:10157000C04608980999019A009B0068096848408C
:10158000C10F0798C907214382600AC00BB0F0BDA4
:1015900000B585B0019300920A460146002302A8D7
:1015A000FFF7FCFD02A807C805B000BDFFB50A465D
:1015B0001F4685B00799019301230091014602A8B7
:1015C000FFF7ECFD02990398049ECA0F4900D20769
:1015D00000920F22490892028C1A0021002800DB99
:1015E0000C46450013486D08844214D3079A002A1C
:1015F00004DA441E0026104DF64302E004460D4670
:101600000E46102108460020C046002F03D00421BA
:1016100008460020C0462005E90A0843009908430F
:101620006905F20A1143ADE602C0FFFF013C00006C
:10163000FF3F0000FF070000FFFFFF7F00B585B000
:10164000019300920A460146002302A8FFF79CFE80
:1016500002A807C8A8E7FFB50A461F4685B0079944
:10166000019301230091014602A8FFF78DFE029924
:101670000398049ECA0F4900D20700920F2249081E
:1016800092028C1A0021002800DB0C46450011480C
:101690006D08844214D3079A002A04DA441E0026F7
:1016A0000D4DF64302E004460D460E461021084655
:1016B0000020C046002F03D0042108460020C04669
:1016C0002005E90A0843009908436905F20A114315
:1016D00058E60000FF070000FFFFFF7F10B5FF2363
:1016E0001B0644009C421DD84C009C421AD803465D
:1016F000124A0B4307D4401A02D3EFF3008010BD07
:10170000EFF3008010BD081A03D3EFF3008090437D
:1017100005E0EFF3008001219043C907084380F3FF
:10172000008810BD0D231B041A4204D0114600206E
:1017300000F08AF810BD00F09FF810BD0000009086
:1017400000487047100000207546FFF7F9FFAE46CD
:10175000050069465346C008C000854618B020B54C
:10176000FEF72CFD60BCB64600260027C0C5C0C5EC
:10177000C0C5C0C5C0C5C0C5C0C5C0C5403D49087D
:1017800049008D46704710B50446C046C046204605
:10179000FEF704FD10BD000082078B079A423FD17F
:1017A00070B5920F0AD0032402780B78401C491CB4
:1017B000002A33D09A4231D12042F5D1214EF40192
:1017C00004C808C9951B9543254018D19A420FD1EA
:1017D00004C808C9951B9543254010D19A4207D1EA
:1017E00004C808C9951B9543254008D19A42E7D003
:1017F00012BA1BBA01209A4200D2404270BD12BAFE
:101800001BBA2DBA18241000E0401900E140401A1C
:1018100005D12E00E64002D1083CF4D1D01A70BDAB
:1018200002780B78401C491C002A09D09A4207D143
:1018300002780B78401C491C002A01D09A42EFD054
:10184000D01A704701010101C80212D54803400FA8
:10185000002804D0C803C043012188407047EFF33B
:1018600000800001000903210907084380F3008874
:10187000704700207047000010B5024800F004F8DF
:1018800010BD00000000C07F10B50C461107090F05
:10189000092904D00A290AD008290CD104E01146EC
:1018A0000820FFF7D1FF06E0510606D501E05106FA
:1018B00001D50120C007214610BDD10607D5010181
:1018C0000909CC084907000E0006044309E0410F4E
:1018D00020024907000A0143200E00061D22D141C3
:1018E00001430846E7E7000001491820ABBEFEE7C8
:1018F00026000200704710B5014624314A78022ABA
:1019000014D1026813680E24A343136013680124E2
:10191000A3431360026C406C1C2303402046984094
:1019200050604C70002000220A7010BD0422C26377
:10193000012000220A7010BDB0B5014624314A785A
:10194000022A18D1026813680E24A3431360136897
:101950000125AB431360026C436C1C241C402B46D6
:10196000A340536000240C704D70816B002900D09F
:1019700088472046B0BD0421C1630120B0BD2521A8
:10198000405C7047B0B5044600F0DAF80546601CCC
:1019900002D004480078241800F0D2F8401BA0427E
:1019A000FAD3B0BD00000020F0B58AB007900B68F4
:1019B000002B00D1B3E00E465A480799814201D06E
:1019C000062000E005200B210907079A52180A217A
:1019D000CA410192052A00D3019007982030009057
:1019E000002215461746029619460BE021434E4841
:1019F00001607F1C31680846F840121DAD1C0028AC
:101A000000D18CE001231846B8400140F1D0059385
:101A100006920391324603263146A9400495CD43F0
:101A200051680C463440631E012B0895099110D86B
:101A300007998B682B40D668049DAE401E438E608C
:101A4000099AD306DB0FBB404E6886431E434E60A7
:101A500006E0032C049D03D13446029E069A1DE045
:101A60000799C868089A1040029EB368AB400343C8
:101A7000CB60022C069A11D11C2010400F2181400E
:101A8000FB089B00009AD4588C4331698140214364
:101A9000D150069A7068032409900440AC4007991D
:101AA0000868089B18402043086009988003800F4D
:101AB000059B9ED04B490868184308600C201040D5
:101AC0000F21814003233C469C43184BE3588B4332
:101AD0000199814019431548215013488168706865
:101AE000C30202D5039C214301E0039CA1430E4B9A
:101AF0009960D968830201D5214300E0A1430A4BD4
:101B0000D9605968830301D5214300E0A143064B06
:101B100059601968C00300D568E7A14367E70AB0B8
:101B2000F0BDC046001C0050000401400800014008
:101B3000002A02D018228150704728228150704715
:101B4000014800687047C04634020020B0B5024624
:101B5000034640335C780220202C17D11C78012CDE
:101B600014D024205870106802680124A243026037
:101B7000220305689543056002680A430260016814
:101B8000214301600020187020215970B0BDB0B50C
:101B90000246034640335C780220202C17D11C7883
:101BA000012C14D024205870106802680124A2432C
:101BB00002600F2212020568954309022943016061
:101BC0000168214301600020187020215970B0BDC8
:101BD00004490A68012313430B6003490A6802435E
:101BE0000A6070473410024004000140704770479B
:101BF000F0B581B00122150201688B691C462C40AA
:101C0000664266410F6880243C4067426741374323
:101C100004D1466C012737434764CD616542654175
:101C20005E05164600D52E46002E05D19502466C5F
:101C3000082737434764CD61654265419B051346DC
:101C400009D4002B0AD0416C0B22114201D001F0C3
:101C5000F3FE01B0F0BD2B46002BF4D15202436CD1
:101C600002241C434464CA61416C0B221142EED130
:101C7000EFE780B502689169436B1268002B00D0D2
:101C8000984780BD70470000F0B581B0002822D091
:101C9000054640356978002905D1002129700446A0
:101CA00000F082FA20462421697001680B68012245
:101CB00093430B600F231B0644689C430C618C68A4
:101CC0001C4B1C408C608468C668012E06D1D6036C
:101CD00034438C600CE0012001B0F0BD2127BF022D
:101CE0003C438C60022E03D1D4024E68264302E0AE
:101CF000D4024E68A6434E604C680F4E26434E6099
:101D0000CC681C40CC60036944691C4383691B0296
:101D10002343CB60C369046A1C430C600B68134304
:101D20000B600021416420226A7001630846A9709B
:101D300001B0F0BDFF7FFFFF008000027047000090
:101D4000F0B589B004460646403675780220202D4D
:101D500009D10E9F002F08D00F9D002D05D00795AB
:101D60003578012D06D109B0F0BD01204102616432
:101D700009B0F0BD039705930292069101200890E7
:101D80003070FFF7DDFE02462068816909042FD418
:101D900010990491222171704021B170002767646D
:101DA00007996185039961626763F949069B0B4056
:101DB0000599C9B209040693C9184368F54D2B402B
:101DC000C918012308935B03C91841602046049990
:101DD000154602F047FB002846D103970795206877
:101DE0000599012926D10299C9B28162079D31E086
:101DF0000898C50302E081692942C9D0192120460B
:101E0000174602F0B3F8002811D1FFF799FEC11B65
:101E100020681A293A46EED381692942EBD0606CDA
:101E2000202108436064717000203070B070089801
:101E300009B0F0BD0299090A816220460499079D04
:101E40002A4602F00FFB0028039F0DD1216802985B
:101E5000C0B288620095402100222046049B02F017
:101E600041FA0028039F03D03770089809B0F0BDED
:101E7000608D000A07D020684168C64A1140021DE3
:101E800001203A4B09E0608D22685368C1490B403C
:101E9000C1B209041943121D334B069F194339433C
:101EA0001160208501200890400638180590079A97
:101EB000049D0FE0608D208521684A68B84B1A4068
:101EC000C0B20004059B184310434860079A608D18
:101ED000002834D000920421002720463A462B46A1
:101EE00002F000FA0028A2D1606A2168496A0170F4
:101EF000608D401E6085606A401C6062208D401EBF
:101F00002085618D0029079AE1D00004DFD100927D
:101F10008021002220462B4602F0E4F9002886D1D9
:101F2000608D000AC6D00120208521684A689C483F
:101F30000240069802430E4802434A60C6E7204624
:101F4000294602F04CFA0028089800D00BE72068D8
:101F50002021C1614268934B134043607170377018
:101F6000B770384609B0F0BD00240002002401011A
:101F700000000101F0B589B00446074640377D787E
:101F80000220202D09D10E9E002E08D00F9D002D7D
:101F900005D007953D78012D06D109B0F0BD01208F
:101FA0004102616409B0F0BD039604930292069168
:101FB000012005903870FFF7C3FD0646206881694F
:101FC00009042DD40896109D212179704021B97003
:101FD00000266664079961850399616266636C49AE
:101FE000069A0A400499C9B20904069289184268FF
:101FF000684B1340C918684A891841602046079504
:102000002946089A02F02EFA002845D10396206846
:102010000499012925D10299C9B28162089D30E055
:102020000598C50302E081692942CBD019212046D9
:10203000324601F09BFF002810D1FFF781FD811B84
:1020400020681A29EFD381692942ECD0606C2021E5
:1020500008436064797000203870B870059809B042
:10206000F0BD0299090A816220460799089D2A4617
:1020700002F0F8F90028039E0ED121680298C0B240
:10208000886200958021002520462A46079B02F0A1
:1020900029F90028039E03D03E70059809B0F0BDD1
:1020A000039501204606618D090A3C4A3C4905908A
:1020B00006D020680B4641681940051DFF2008E046
:1020C000608D226853680B40C1B209041943151D85
:1020D0003246069B11431943296020851E4304960E
:1020E000089A079E0FE0608D208521684A682C4B76
:1020F0001A40C0B20004049B184310434860608D2E
:102100000028089A2FD02046314602F0ABF900286B
:10211000A4D12068616A0A788262608D401E608561
:10212000481C6062208D401E2085618D0029E6D00C
:102130000004E4D108980090802100222046334614
:1021400002F0D0F8002889D1608D000ACBD0FF20A2
:10215000208521684A6812480240069802430F48C9
:1021600002434A60CBE72046314602F038F90028A6
:10217000059800D011E720682021C1614268094B11
:1021800013404360797003983870B87009B0F0BD9F
:10219000FF030000009800FC002000010000FF0188
:1021A000009C00FC00E800FEB0B586B00024059459
:1021B000049403940294019400681549884201D064
:1021C00006B0B0BD134D2868022108432860286876
:1021D00008400090042005900394122002900320F0
:1021E00004900002019000980B4801A9FFF7DCFB66
:1021F00001204005E9680143E9601725284621468A
:10220000224600F065F8284600F056F806B0B0BD4A
:10221000005400402C1002400004005070477047EA
:102220001D48007802490A68101808607047C046C7
:102230003402002010B50848016840220A430260B9
:102240000024204600F00AF8002801D0012010BD2B
:1022500000F026F8204610BD0020024070B504466C
:102260007D20C0000C4E317803F014FD01460B4870
:10227000006803F00FFD00F083FD0125032C08D852
:10228000002806D10025E84321462A4600F020F820
:102290007460284670BDC046000000200800002081
:1022A00004480168012211430160110742680A4392
:1022B0004260704734100240002805D41F210840B6
:1022C00001218140014801607047C04600E100E003
:1022D000002805D40322034693430A4A9A1803E0D0
:1022E0000C220240064BD2188007C00E8901C9B2E9
:1022F0008140FF2383401068984308431060704773
:1023000014ED00E000E400E0F0B589B006680125B6
:102310002F02EA0211462031874B0E427CD00592F3
:1023200008902907143B18680840049002D11868E7
:102330000843186001930291804C2068384211D103
:10234000206838432060FFF7FBFB064620683842D0
:1023500008D1FFF7F5FB801B6428F7D90325284631
:1023600009B0F0BD0326340573484C380690016867
:102370002140089B5868024603942240009634048A
:1023800091420AD102462240A242069E0DD19A688D
:10239000039B1A40914205D107E001462140A1422A
:1023A000069E02D131688903D9D4634B59680794DA
:1023B000214021D0079A1040814203D0089800782C
:1023C00080060AD408988068079A1040814213D08A
:1023D00008980068059908420ED05868E9045A68C0
:1023E0000A435A605A688A435A600146079A9143E1
:1023F0005960384200D08CE00898066805990E4272
:10240000079C59D1B1066DD40499002904D1019CCF
:102410002168029A91432160F1070DD1B10713D4CD
:10242000710719D4310720D43E4227D171062ED42A
:102430000025310693D535E0196803229143C2681F
:102440000A431A60B107EBD519680C22914302695F
:102450000A431A607107E5D5032189021A688A4385
:102460004169114319603107DED5032109031A6858
:102470008A438169114319603E42D7D00321090480
:102480001A688A43C169114319607106D0D50121C8
:1024900089061A688A43416A11431960002531068A
:1024A00000D45CE703218A0419689143006A084359
:1024B0001860284609B0F0BD826811462140A1424B
:1024C0000BD10398024003231B05069D2C689C43F7
:1024D000194B089814432C60079C5A680A435A60A9
:1024E000B10691D5426811462140A1420AD1039814
:1024F000024003231B05069D2C689C430E4B089845
:1025000014432C605A680A435A600499002983D105
:102510007DE7FFF715FB0546884C074B586880059B
:1025200000D569E7FFF70CFB401BA042F5D9009DE1
:10253000284609B0F0BDC0464C1002400070004073
:10254000F0B583B0002846D00E4602907A48006865
:10255000012101910840864216D977490868012572
:10256000A84330430860754CFFF7EAFA0746724803
:1025700000682840B04207D0FFF7E2FAC01BA04233
:10258000F5D9032003B0F0BD029D28688107794C7E
:1025900005D52168F0229143AA680A432260C0074A
:1025A0001CD16548006801273840864224D2624920
:1025B0000868B8430860614CFFF7C2FA05465E48F8
:1025C0000068C00718D0FFF7BBFA401BA042F6D93D
:1025D000032003B0F0BD012003B0F0BD6A682146BE
:1025E0000C390968012A34D0032A2DD0022A72D16D
:1025F000890301982BD52FE0029B186841075D4C99
:1026000006D50721090222688A43D968114321604F
:10261000000707D50720C002216881431869C00060
:102620000843206021680807820F6E487A441279B7
:10263000520097440154735B3804214608390968F5
:102640000904490F884069E08901019804D403B066
:10265000F0BD49070198FAD5216803200190814314
:1026600011432160FFF76CFA07466868334D032871
:102670002BD002281ED001280AD120680C2101404D
:1026800004298ED0FFF75CFAC01BA842F5D909E0F7
:1026900020680007800F00D183E7FFF751FAC01BC5
:1026A000A842F5D9019803B0F0BDFFF749FAC01B65
:1026B000A842F7D820680C2101400829F5D170E71D
:1026C000FFF73EFAC01BA842ECD820680C2101405D
:1026D0000C29F5D165E789050198B8D5BCE72046F6
:1026E0000C380068C00612D5414817E08A02120F64
:1026F0003D4B9A5C0902890F491C2368DB0309D40E
:1027000020460C380068C00603D5394802E0374837
:1027100004E036484243104603F0BCFA216809063B
:10272000090F074A515CC840114908600548006814
:10273000FFF794FD03B0F0BD0020024088130000B5
:102740002C63000804000020094800680949096852
:102750004905490F084A515CC84070470448006861
:10276000044909688904490F034A515CC84070470D
:10277000080000200C1002403C63000810B5844B98
:10278000D9680807820F17487A4412795200974493
:102790000108070D0120000459680904490F884009
:1027A00010BD1868C00614D5114810BD8A02120F5A
:1027B0000D4CA25C0902890F491CDC68E40303D4B8
:1027C0001868C00607D50A484243104603F062FA6B
:1027D00010BD064810BD05484243104603F05AFAA2
:1027E00010BDC04600127A00446300080024F400C3
:1027F00000093D00F0B589B0002855D0644EF1685D
:102800000C220A400692012105910904F7680491FF
:102810000F4007900078C00710D00698082806D00F
:1028200006980C2800D0D5E0002F00D1D2E0306807
:10283000800303D507984068002850D0079B18787C
:10284000800734D41878C0064CD407980078000765
:1028500066D407990878400700D59BE00878800681
:1028600000D51EE10798846A002C1AD006980C281F
:1028700000D067E1012C32D0F068049A0240079B37
:10288000D96A8A422BD10F21890401401A6B9142E7
:1028900025D1032189050840596B8842059800D04D
:1028A00057E2002009B0F0BD012009B0F0BDD868A2
:1028B000810604D531682022114331609043069986
:1028C000042906D006990C2900D0A9E0002F00D0D9
:1028D000A6E0316800283AD10422114037D005988B
:1028E00009B0F0BD012044020699002900D1ADE0F5
:1028F0003168079AD2690002002A00D101E1014340
:102900003160FFF71DF905463068204200D008E12C
:10291000FFF716F9401B0228F6D9032009B0F0BDD5
:10292000306D07994969002900D1D9E00121084398
:102930003065FFF705F90546306D800789D4FFF74C
:10294000FFF8401B0228F7D9032009B0F0BD1F2172
:10295000090272688A43196909021143716031687A
:102960000922914301433160F1680807820FFA4858
:102970005200C0467A4492885200974403002401D2
:10298000DA013B0170680004410F04988840D0E1EF
:102990000010024001221107B06B0840029002D1E2
:1029A000B06B0843B063019103921402F14F386891
:1029B000C00523D4386820433860FFF7C1F80546C6
:1029C000386820421AD1FFF7BBF8411B0320642965
:1029D000F6D9BEE1306807994968049A914209D056
:1029E00005221204914200D0CDE0059989040843E4
:1029F00030603068049908433060D3E007988168FC
:102A0000306D039B5F02002900D12BE105221202E9
:102A1000914200D120E1A14200D037E120433AE1C8
:102A20003168002800D1D3E009229143014331608D
:102A3000FFF786F805463068400700D502E1FFF74A
:102A40007FF8411B03200229F5D982E13168214238
:102A500004D00799C969002900D17AE10720400311
:102A600071688143079B586A01437160FF21090621
:102A700072688A43196A090689187160400B0499C3
:102A80008140F0680006000FB74A105CC140B748AB
:102A90000160B7480068FFF7E1FB002800D058E16B
:102AA000D3E6B06807998969002900D1B4E0012113
:102AB0000843B060706B084370634803AF490A680D
:102AC00002430A60FFF73CF80546B068800700D56E
:102AD000C8E6FFF735F8411B03200229F5D938E194
:102AE000012188433065FFF72BF80546306D8007DC
:102AF00000D4AEE6FFF724F8411B03200229F5D9E4
:102B000027E181433160FFF71BF80546306820421A
:102B100000D19AE6FFF714F8411B03200229F5D9EA
:102B200017E10720400371688143079A506A084300
:102B30007060FF20000671688143106A000640182B
:102B4000706082E60120010632688A4332604706DF
:102B5000FEF7F6FF0546022C0AD13068384200D154
:102B6000C4E0FEF7EDFF411B03200229F5D9F0E098
:102B70003068384200D194E6FEF7E2FF411B0320A3
:102B80000229F5D9E5E0049A90433060306810409E
:102B900008900898059880043268824332600029C2
:102BA00000D193E005984404FEF7CAFF054630685B
:102BB000204200D042E6FEF7C3FF401B6428F6D94E
:102BC000032009B0F0BD3068C0067DD56548B0E08F
:102BD000012081433160FEF7B3FF054630684007AE
:102BE000079B00D42EE6FEF7ABFF411B0320022912
:102BF000F4D9AEE08A02120F584B9A5C0902890F91
:102C0000491CF368049C234200D08EE03068C00663
:102C100000D489E0534888E001218843B06048032C
:102C200056490A6882430A60FEF78AFF0546B06883
:102C3000800700D416E6FEF783FF411B032002291C
:102C4000F5D986E01F20000271688143079B18694F
:102C5000000208437060F5E5990208433065306D65
:102C6000204318E0A04330659802316D81433165FF
:102C7000FEF766FF0546404C306D38421AD0FEF72D
:102C80005FFF411B0320A142F6D962E0A0433065FB
:102C90009902306D88433065FEF752FF0546364C89
:102CA000306D384206D1FEF74BFF411B0320A14295
:102CB000F6D94EE002980028079900D0CEE5B06B17
:102CC000019A9043B063C9E5254832E00598440471
:102CD000FEF736FF05463068204200D1AEE5FEF72C
:102CE0002FFF411B03206429F5D932E0FD200004A9
:102CF000F1688143079B2C330DCB084310431843E5
:102D0000F0602948401C316801433160FEF718FF2C
:102D100004463068384200D0C3E5FEF711FF011BBE
:102D200003200229F5D914E00D484243104602F071
:102D3000B1FFF1680906090F0B4A515CC8400B4905
:102D400008600B480068FFF789FA0028079B00D14C
:102D500078E509B0F0BDC04600127A00446300086F
:102D60000024F40000093D002C6300080800002046
:102D70000400002000700040881300002000014083
:102D8000401E010E01D0012070470749074A5060DC
:102D9000074803680B400321890759180160002088
:102DA0009060072111607047FFFFFF0010E000E016
:102DB00020ED00E010B53822825C012A01D102200A
:102DC00010BD0246383202235370006843687024F5
:102DD000A3430C681C43836844605C4CA04207DC3E
:102DE0000124A407A04209D05B4CA04206D00AE00F
:102DF000574CA04202D0574CA04204D18024A34398
:102E0000496819438160002010700121517010BD84
:102E1000B0B5002819D0054638356978002905D1A4
:102E200000212970044600F04DF820460221697007
:102E300001680C68454B994209DC012292079142D6
:102E40000BD0454A914208D015E00120B0BD404A60
:102E5000914202D03F4A91420DD170229443826840
:102E6000224399420ADC01239B0799420CD03A4B3A
:102E7000994209D024E022469942F4DD344B99422C
:102E800002D0344B99421BD103231B029A4303699E
:102E90001343C268CA6242688A620A6804241443FF
:102EA0000C6001224A618024A343406918430860F2
:102EB000AA71AA70EA702A716A716A700020B0BDA6
:102EC0001346E6E710B500680949884200D010BDF6
:102ED0000848016810220A4302601124002120469C
:102EE0000A46FFF7F5F92046FFF7E6F910BDC046A0
:102EF00000100040381002403921415C012912D1F4
:102F00000146393102220A700068C26801210A4371
:102F1000C2600E4A904208DC8A0790420BD00E4AEB
:102F2000904208D00CE001207047094A904202D03C
:102F3000084A904204D1826807231340062B02D02E
:102F400002680A43026000207047C046FF07014044
:102F50000014014000080140000400407047F0B533
:102F600085B004460068C5680227294639404A42B0
:102F70004A410169049139404B424B41134340217E
:102F80000291C9430391002B13D103993E31016192
:102F9000012121768069800703D02046FFF7DEFFFC
:102FA00005E0204600F094F8204600F092F800205A
:102FB00020760126042229461140484248410499BE
:102FC0004907314600D5014603200002019000293F
:102FD00016D10092206803993C31016127768069FF
:102FE0000199084203D02046FFF7B8FF05E02046CC
:102FF00000F06EF8204600F06CF800202076009A71
:103000000827294639404842484104990907314672
:1030100000D50146002913D1206803993831016198
:103020002276C069800703D02046FFF797FF05E0AE
:10303000204600F04DF8204600F04BF800202076A6
:1030400010212940484248410499C906314600D51B
:103050000146002914D12068039930310161277697
:10306000C0690199084203D02046FFF777FF05E0C9
:10307000204600F02DF8204600F02BF800202076A6
:1030800001212940484248410499C907314600D0EE
:103090000146002906D1206803993F31016120468D
:1030A00000F018F802980540684268410499490602
:1030B00003D4002E04D005B0F0BD0646002EFAD190
:1030C000206803990161204600F072F805B0F0BD58
:1030D00070477047F0B59FB0314802F057FD314D51
:1030E000E86EFDF755FB04460591286FFDF750FB90
:1030F00006460F46A86EFDF74BFB02460B460094B2
:10310000059801A9C1C106AC27492046FDF7F0F892
:103110002046FDF7FBF90021CB4382B2234821462C
:1031200000F042FB686C014602F0C4FFA96A02F09D
:1031300027FF0646A862A86C014602F0BBFFE96AB9
:1031400002F01EFF0746E862E86C014602F0B2FF9B
:10315000296B02F015FF04462863686AFDF716FC28
:1031600001463046FDF73EFB02F0DDFEE865686A89
:10317000FDF70CFC01463846FDF734FB02F0D3FEA8
:103180002866686AFDF702FC01462046FDF72AFB27
:1031900002F0C9FE6866686A401C68621FB0F0BD34
:1031A000E40000207000002060630008AC010020F3
:1031B0007047704770477047F0B587B0012106919E
:1031C000CF0239462F310268D369194020394C1E8D
:1031D000A141156820262C4604963440664266417B
:1031E0000E43966853D0059080300390029739467D
:1031F0000F310B4207D0E9482840012731463940BA
:10320000081800D094E01024284620404742474147
:103210000598006E0128069940D0D806069F41D433
:10322000002F42D00124A005064071427141D8020E
:10323000069E00D50E46002E00D186E08020284054
:10324000414241411806069A00D50A46002A00D19B
:1032500097E140210D406A426A41580600D5069226
:103260000698002800D007E1EFF3108584F310885A
:103270000598026813688B43136085F3108800215A
:10328000C1660499C16700F055FB07B0F0BD816EBF
:10329000002900D1F0E0884707B0F0BD3946D806D4
:1032A000069FBDD50F46002FBCD105990D46583558
:1032B0001462906840064FD40694688829886A880A
:1032C000002A00D1D8E0814200D1D5E0EFF310838D
:1032D000012282F3108809256D01059C2668376854
:1032E000AF43376083F31088EFF3108382F31088C5
:1032F0002568AE689643AE6083F31088049B039DF7
:103300002B600023A3662366EFF3108382F31088FB
:1033100022681568069EB543156083F31088022263
:103320006266081A81B22046FFF743FF07B0F0BD7E
:1033300001973802284046424641D80706985AD19C
:1033400000285BD0980761D46BE0200510620598D7
:10335000FFF730FF07B0F0BD2A88486F0068436868
:1033600099B2002900D1FEE0914200D3FBE06B80CE
:103370000068800634D4EFF31081012080F31088B8
:10338000884A2032059F3B681E6816401E6081F304
:103390001088EFF3108180F310883A6893688343B4
:1033A000936081F31088EFF3108180F310883A68FE
:1033B00093684026B343936081F310880499039A7D
:1033C000116000213966EFF3108180F310883868AE
:1033D0000268A243026081F31088786FFEF78BFACF
:1033E0000221059841662A886988511A89B2FFF737
:1033F000E0FE07B0F0BD30460028A3D1019F176260
:10340000039E70683843706098070AD5002908D079
:10341000022010620398466800960426009F3E43EF
:10342000466058070AD5002908D004201062039886
:10343000466800960226009F3E43466021434E4266
:103440004E411807069900D53146002905D10820BC
:103450001062039E716801437160019EB0060540D1
:103460006942694102980342069D07D1002D039DE0
:1034700008D0686800280ED107B0F0BD0D46002DB9
:10348000039DF6D102981062686804990843686049
:1034900068680028F0D00498034061426141002B25
:1034A00000D0069106980028059806D1816E002963
:1034B00003D00446884720462268696828230B40C9
:1034C000926840210A40D21805D1FFF774FE00200F
:1034D000686007B0F0BDEFF3108586F3108809220D
:1034E000520103681C6894431C6085F31088EFF355
:1034F000108486F3108802689368B343936084F362
:103500001088026E012A0AD1EFF3108586F3108825
:10351000026813681024A343136085F31088049A8B
:10352000039B1A6000220266826602689268520655
:1035300030D5EFF3108486F31088026893688B43CC
:10354000936084F31088416F002923D00446144807
:1035500088630846FEF7F0F900288DD0606F816B14
:10356000884707B0F0BD8A4200D085E70068800632
:1035700000D481E7022205984266FFF71AFE07B0E1
:10358000F0BD0598C16E002900D175E70598884700
:1035900007B0F0BDFFF70FFE07B0F0BD200100043B
:1035A00085480008DFFEFFFFB0B500281DD00446A7
:1035B000C06F002805D1782000212154204600F05A
:1035C0002BF82420E067206801680125A9430160E9
:1035D000606A002802D0204601F082F8204601F0FF
:1035E00031FA002803D02846B0BD0120B0BD092023
:1035F000C00221684A6882434A6088682A22904350
:1036000088600868012202430A60204601F0D2F86F
:1036100005462846B0BD0000B0B586B0002405942C
:10362000049403940294019400685B49884201D099
:1036300006B0B0BD01208103114A93680B4393602B
:103640001168014311601168014000910420059048
:1036500003940220029003200490400201900098FD
:103660000520000701A9FEF79FF91B2528462146E2
:103670002246FEF72DFE2846FEF71EFE06B0B0BD20
:103680002C100240F0B581B08023C358202B12D1FA
:10369000012400290CD0002A0AD001231C038568CC
:1036A000A5420CD1CC070AD00469002C07D11C46D6
:1036B000204601B0F0BD0224204601B0F0BD002438
:1036C000046605680A4EB5420DD06D682D020AD514
:1036D000EFF3108583F310889B06066837681F4355
:1036E000376085F3108801F0C3FA204601B0F0BDC1
:1036F0000048004010B584B000682749884201D0D6
:1037000004B010BD254C6078FC21014030293CD12B
:103710003038A070224802F021FAA07820700328E7
:103720001BD8C04678440079400087440110050A40
:1037300003A80021017014E003A8102101708B2060
:1037400010E003A818210170452000060BE003A833
:10375000082101702320400605E003A80021017024
:1037600021708D20C00520640123019303A80090DF
:103770000020C04302907848D0211C22FEF7FAFBBB
:10378000606A1E2801DB02F00FF8611C0548012267
:10379000FFF778FF04B010BD003801407000002032
:1037A000E4000020AC010020F0B585B00446C06FF5
:1037B000202810D1012000290BD0002A09D0012097
:1037C0000503A668AE4209D1CE0707D02669002EB0
:1037D00004D105B0F0BD022005B0F0BD0193029107
:1037E0002746503720468430002103910160212074
:1037F000E0671646FEF7A4F904907E803E80A0683C
:10380000A84202D1206900285ED0029D019E039A41
:103810002168788800285ED0701C454B2ED0002E81
:1038200049D00392C869000608D4FEF789F90499C3
:10383000401AB04266D821680868F3E7002D03D02B
:10384000287888626D1C07E0039A1088384B18406E
:103850008862921C039200257888401E78807888C0
:103860000028DFD137E0108818408862921C0025BC
:103870007888401E7880788800282CD0C869000697
:1038800008D4C869000605D4C869000602D4C8690E
:103890000006F3D5002DE6D0287888626D1CE7E796
:1038A000108818408862921C00257888401E788015
:1038B000788800280FD0C869000621D5002DEFD0E8
:1038C000287888626D1CF0E70025029A019E216825
:1038D00078880028A0D1CA690020520613D4002E8F
:1038E0000ED0721C13D1CA6952060CD4CA69520692
:1038F00009D4CA69520606D4CA695206F3D502E051
:10390000FEF71EF903202021E16705B0F0BD054652
:10391000FEF716F90499401AB042F3D820680168FE
:10392000C0694006F4D528462021E16705B0F0BD06
:10393000FF0100007047FEE780B507480068806916
:103940004005400F03D00448FEF752F980BD0248FD
:10395000FEF78FF980BDC0465801002080B5806A0F
:10396000816B002901D000228A6301464031C26B7D
:10397000002A01D0002393634A78602A07D12022CD
:103980004A7000220A700263FEF730F980BD0022FF
:103990000A700263FEF776F980BD0000F0B581B0D1
:1039A00006464036717828220A400568282A1DD12B
:1039B000A969AC69AB68EA680092FE22240CC903CD
:1039C000C90FC768022F17D1DF0967407C07A40F12
:1039D0001ED0009B1340002232702A68B824A243F4
:1039E0002A601A46FEF703F901B0F0BD00203070DE
:1039F0000820E86101B0F0BD002333702B68B826C1
:103A0000B3432B6014402246FEF7F1F801B0F0BD3D
:103A1000826C521C8264826C022AEBD1054C1A46DD
:103A200022400023836433700823EB61FEF7DFF844
:103A300001B0F0BDFF03000070B5044605464035F7
:103A40006A780020A870504BE3626085636C0B437A
:103A500063646978283A022A16D86B7828200340D4
:103A6000F622D6433246B032282B134600D03346D6
:103A70000140282900D0324621680E6816401E40B9
:103A80000E606870414829E0697821680A68FE2361
:103A90009A430A608A69920706D48A69D20707D0D6
:103AA0006A78602A0BD119E088628A69D207F7D157
:103AB0008A69012313438B616A78602A0ED0202221
:103AC0006A708B699B0609D58B69DB0605D51023C7
:103AD000CB61636C04261E436664CA616063A06B9D
:103AE000226B00281CD0212A01D0112A18D10A6883
:103AF000520404D5012292030B6893430B60FDF737
:103B00003EFF01281FD000202870A06B2049816350
:103B1000FDF712FF002828D0A06B816B884770BD8D
:103B2000E06B00280FD0222A01D0122A0BD10A689C
:103B3000120404D50122D2030B6893430B60FDF7F6
:103B40001EFF012812D16878602808D120206870F3
:103B50000020287020632046FEF748F870BD002042
:103B6000287020632046FEF78DF870BD0020287075
:103B7000E06B07498163FDF7DFFE0028F5D0E06BBD
:103B8000816B884770BDC0460000FFFFE940000818
:103B90005D390008F0B585B00D4604460368196824
:103BA000C06A029026464036777820200390D8617C
:103BB000F7223A40F420C043212A019005D0222A5E
:103BC00005D10746083F222207E0871F05E0282F7E
:103BD00008D17078019F0A3F002270781868384039
:103BE000186022630122D70358680497384358604D
:103BF0005868BA4F07405F609869800711D4986988
:103C0000C00713D097034804009716D404980142C4
:103C10001CD01868049FB8431860E76B002F12D1BE
:103C200014E0002098629869C007EBD198691043AE
:103C30009861970348040097E8D51868B84318605E
:103C4000A76B002F02D038684068608568070FD5E1
:103C5000606A5B6A0370606A401C6062042085438E
:103C6000238D002B04D0581E2085608D401E60855A
:103C7000608D002803D0606C042303436364102725
:103C8000E80643D5394041D0608D00280ED0206829
:103C9000C761606C0421014361649148029901424B
:103CA00034D1616C2046FFF7C7FE2FE070788D4B52
:103CB00028287FD15006029981427BD1E3620020FF
:103CC0002063039971706063B070690712D5616AEF
:103CD0002268526A0A70616A491C6162218D00295A
:103CE00008D0628D521E6285491E2185616C0422B6
:103CF0000A4362647178717821680A68FE239A43E6
:103D00000A603070CF612046FEF718F8029700274E
:103D1000B7706763606C002831D0616C2046FFF794
:103D20008BFE7078282866D16E48E062276303987E
:103D300070706763B770680712D5606A2168496A56
:103D40000170606A401C6062208D002808D0618D7F
:103D5000491E6185401E2085606C04210143616419
:103D60007078707820680168FE2291430160377096
:103D70000299C1612046FDF7E1FF05B0F0BDE06AA0
:103D8000584DA8420BD17078039971703770276332
:103D900022282DD12046FEF741FA05B0F0BD20685B
:103DA0000168B770009A114227D1049A114228D0B5
:103DB0006D4923E070782168CF612928A6D1029847
:103DC0009842A3D08869800701D50020886288695D
:103DD000C007009B02D18869104388610A680020EF
:103DE000B0701A4245D1049B1A4246D05E4A41E067
:103DF0002046FEF714FA05B0F0BD5A4902680A40A1
:103E00000260717829290BD1282171702122226347
:103E1000377072780A40282A10D0019A921C0FE05D
:103E200071782A291BD128217170222222633770D0
:103E300072780A40282A0AD0019A0AE0019AB2321E
:103E40000168114001602046FEF7E9F907E0019A98
:103E5000B0320168114001602046FEF7DFF9E562EB
:103E600003987070377027632046FDF767FF05B031
:103E7000F0BD3C4A0B6813400B607278292A0BD1C5
:103E80002822727021232363307070781040282814
:103E900011D00198801C10E072782A2A00D035E7F2
:103EA00028227270222323633070707810402828F3
:103EB0000AD001980AE00198B2300A6802400A600C
:103EC0002046FEF7ACF921E70198B0300A680240BD
:103ED0000A602046FEF7A2F918E7C04600E800FE97
:103EE000FFFFFFFE0000FFFFB0B501680C6802464F
:103EF000403200239370650403D4240405D5F84CA4
:103F000000E0F64C0D6825400D605478292C0CD14A
:103F10002824547021250563137053782340F4221C
:103F2000D243282B16D0921C15E054782A2C10D19D
:103F30002824547022250563137053782340F422FB
:103F4000D243282B00D1B0320B6813400B60FEF730
:103F500065F9B0BDB2320B6813400B60FEF75FF934
:103F6000B0BDC046FFBFFFFFFF7FFFFFF0B585B0CC
:103F70000E4604464030049020688169C90606D484
:103F800000210F4601258269D30543D446E0102164
:103F9000C1618169890635D4711C30D01546012074
:103FA000002E6AD186030390C703FDF7C9FD206880
:103FB00042680499897883693B4209D0324007D12D
:103FC000202905D0416831434160FDF7B9FD054620
:103FD00020688169890605D4FDF7B2FD401B1A28C7
:103FE000F6D375E081698906DFD50BE08169890622
:103FF00008D48169890605D48169890602D481695A
:104000008906F3D52021C161012704210125826998
:10401000D30503D52B02C36129432F466B025605F6
:1040200006D41A420AD1002F0BD1002005B0F0BDF2
:10403000AD02C561082529431A4202D0C36102229C
:1040400011438269920701D5002282628269D207F8
:1040500003D182690123134383614268214B1340DA
:104060004360606C0843606420200499487000201D
:1040700008708870012005B0F0BD810302910390A3
:10408000C0030190019F02E081698906BAD4FDF75F
:1040900057FD411B2068B142F6D9426804998978DE
:1040A00083693B420BD0029B1A4008D1202906D0DD
:1040B0004168029A11434160FDF742FD05462068C0
:1040C00081698906E0D4FDF73BFD401B1A28F6D331
:1040D000206881692421039F01258269D30599D431
:1040E0009CE7C04600E800FEF0B581B04023C45C08
:1040F000C36A012C02D1022001B0F0BD0446403455
:10410000012525700A4096061CD4D60620D45107F6
:1041100032D4110700D582E0910715D5418D0029D1
:1041200000D1CDE00168426A13788B62511C416274
:10413000018D491E0185418D491E41850020207059
:1041400001B0F0BDFFF726FD0020207001B0F0BDEA
:10415000428D002A30D001681022CA61416C0422CD
:104160000A4342645B490B42EED1416CFFF764FCA9
:104170000020207001B0F0BD418D00290CD0416AB3
:104180000268526A0A70416A491C4162018D491EE7
:104190000185418D491E4185418D0029D4D14E496B
:1041A0008B42D1D001680B680022A2705D0450D40C
:1041B0001B0452D54A4B4DE06678474A282E34D12D
:1041C0006E06B34231D1C2620022026320236370C3
:1041D0004263A270490712D5416A03685B6A0B709B
:1041E000416A491C4162018D002908D0438D5B1E44
:1041F0004385491E0185416C04230B434364617868
:10420000617801680B68FE25AB430B6022701022B9
:10421000CA61FDF793FD0020207001B0F0BDFFF7EB
:10422000BDFB0020207001B0F0BD6678016810274A
:10423000CF61292E88D1934286D08A69920701D511
:1042400000228A628A69D2073ED18A692A438A613A
:104250003AE0224B0D681D400D606378292B0CD18C
:104260002823637021250563227065781D40F422A0
:10427000D243282D1AD0921C19E063782A2B00D043
:1042800062E72823637022250563227065781D404C
:10429000F422D243282D00D1B0320B6813400B60BA
:1042A000FDF7BCFF0020207001B0F0BDB2320B68FA
:1042B00013400B60FDF7B3FF0020207001B0F0BD8C
:1042C00004490B4200D03FE7FFF70EFE00202070AC
:1042D00001B0F0BDFFFFFFFE0000FFFFFFBFFFFFCB
:1042E000FF7FFFFFF0B585B00D460446006880698A
:1042F0000840401A41424141002604928A4223D19B
:104300001F460A9A581C03922BD0002F029433D1D7
:10431000002620463146FFF729FE002828D1FDF768
:104320000FFC206881692940491B4A424A4104998F
:104330009142039A44D080692840401B4142414148
:1043400004988842029CE3D0304605B0F0BD206856
:1043500080692840401B4142414104988842039AA9
:10436000F2D10026F1432046FFF700FE0028EED0F0
:104370000126304605B0F0BD019507E08069284070
:10438000401B4142414104988842DDD13446029E9F
:10439000304639461546FFF7E9FD0028E8D1FDF71C
:1043A000CFFB411B3068B9422A462646019DE5D91C
:1043B00081692940491B4B424B4104999942DDD107
:1043C000029B18464030596C2022114359644270B8
:1043D0000021017081700126304605B0F0BDF0B5B6
:1043E00081B00546006880690024800622D4164604
:1043F0000F46002903D129E0806980061AD4284697
:1044000039463246FFF7B2FD002827D1FDF798FB69
:10441000811B2868B942EFD981698906ECD4284606
:104420004030696C202211436964427000210170A0
:1044300081700124204601B0F0BDFDF781FB2868A2
:1044400081698906EBD580698006F3D4002428466B
:1044500021463246FFF78AFD0028EED0012420468F
:1044600001B0F0BDF0B581B0054600688069002458
:10447000800716D416460F46481C19D0002F26D1A7
:104480000024284621463246FFF770FD002838D127
:10449000FDF756FB28688169890728D58069800760
:1044A000EED5204601B0F0BD286880698007F8D4B9
:1044B0000024E14328463246FFF758FD0028F3D098
:1044C0000124204601B0F0BD80698007E9D4284668
:1044D00039463246FFF74AFD002812D1FDF730FB7E
:1044E000811B2868B942EFD981698907ECD4284635
:1044F0004030696C202211436964427000210170D0
:1045000081700124204601B0F0BDF0B585B00746AA
:104510000520050701240026049628462146324638
:10452000FDF706FB210228463246FDF701FBF8069F
:10453000C20F102103912846FDF7FAFAB806C20F00
:10454000202102912846FDF7F3FA7806C20F402198
:1045500001912846FDF7ECFAFA09802100912846DE
:10456000FDF7E6FA0226284631462246FDF7E0FA34
:104570002046FDF707FA28463146049AFDF7D8FA97
:104580002046FDF7FFF93A46224028460399FDF7F9
:10459000CFFAB807C20F28460299FDF7C9FABA0840
:1045A0000392224028460199FDF7C2FA3807C20F4C
:1045B00028460099FDF7BCFA284631462246FDF709
:1045C000B7FA2046FDF7DEF928463146049AFDF792
:1045D000AFFA2046FDF7D6F90398002801D005B0C0
:1045E000F0BD0220FDF7CEF905B0F0BDF0B585B005
:1045F0000746052005070124284621462246FDF7E7
:1046000097FA2102002204922846FDF791FAF80653
:10461000C20F102103912846FDF78AFAB806C20F8F
:10462000202102912846FDF783FA7806C20F402127
:1046300001912846FDF77CFAFA098021009128466D
:10464000FDF776FA0226284631462246FDF770FA33
:104650002046FDF797F928463146049AFDF768FA97
:104660002046FDF78FF93A46224028460399FDF788
:104670005FFAB807C20F28460299FDF759FA780782
:10468000C20F28460199FDF753FA3807C20F284692
:104690000099FDF74DFA284631462246FDF748FAC3
:1046A0002046FDF76FF928463146049AFDF740FA97
:1046B0002046FDF767F92046FDF764F905B0F0BD27
:1046C000FEE77047704780B5FDF7AAFD80BD7047D3
:1046D00080B50248FEF743FC80BDC04618010020AB
:1046E000B0B5416A0A070CD4CA0714D18A071CD492
:1046F0004A0724D4CA062CD48A0634D44A063CD4A9
:104700004CE00122D20303685C689443426B22436D
:104710005A60CA07EAD00122520403685C689443D5
:10472000826A22435A608A07E2D501221204036892
:104730005C689443C26A22435A604A07DAD5012270
:10474000920403685C689443026B22435A60CA0671
:10475000D2D50122120303689C689443826B2243E2
:104760009A608A06CAD50122520303689C68944362
:10477000C26B22439A604A0610D5012213050268D3
:1047800054689C43056C2C4354609D4206D103231E
:104790005B0554689C43436C23435360090607D56B
:1047A0000121C904026853688B43806C1843506030
:1047B000B0BD0000F0B583B004460646783600254B
:1047C000F560FDF7BDF9034620680168090721D5AA
:1047D00002952B48009001256905002220461F46BE
:1047E00000F0B0FA002812D0EFF3108085F31088A3
:1047F00021680A6880239A430A6080F310880320A6
:1048000020227C21029D6250357003B0F0BD2068EB
:104810003B46029D0068400726D5194800900127B5
:10482000B9050022204600F08DFA00281CD0EFF3D5
:10483000108087F3108809214901226813688B438F
:10484000136080F31088EFF3108087F310882168DD
:104850008A68BA438A6080F310880320202280216E
:104860006250357003B0F0BD2020E067B06025666F
:1048700064212A4628466250357003B0F0BDC04618
:10488000FFFFFF0180B5806A5A2100224252FEF7E5
:1048900092FC80BDF0B581B0802141580268222988
:1048A00010D1014658318B88526A1A40436D1A80E4
:1048B0004A88521E4A809A1C42654A88002A07D0BC
:1048C00001B0F0BD906908210143916101B0F0BDD4
:1048D00003468033EFF31084012282F31088092508
:1048E0006D0106683768AF43376084F31088EFF3D3
:1048F000108482F310880568AE689643AE6084F336
:10490000108820241C600023836643660468C74D1A
:10491000AC420DD0646824020AD5EFF3108482F310
:104920001088950606683768AF43376084F31088AF
:10493000046E012C15D10366EFF3108382F3108807
:104940000468256810229543256083F31088036866
:10495000DC69E40600D51A620988FEF72AFC01B07A
:10496000F0BDFEF7C7FE01B0F0BDC046F0B581B0A6
:10497000802141580268222911D1014658318B8883
:10498000526A1A40436D1A704A88521E4A80426D1C
:10499000521C42654A88002A07D001B0F0BD9069D8
:1049A00008210143916101B0F0BD03468033EFF36C
:1049B0001084012282F3108809256D01066837688A
:1049C000AF43376084F31088EFF3108482F31088CC
:1049D0000568AE689643AE6084F3108820241C609E
:1049E0000023836643660468904DAC420DD0646832
:1049F00024020AD5EFF3108482F310889506066826
:104A00003768AF43376084F31088046E012C15D1EA
:104A10000366EFF3108382F3108804682568102280
:104A20009543256083F310880368DC69E40600D5AC
:104A30001A620988FEF7BDFB01B0F0BDFEF75AFE11
:104A400001B0F0BDF0B581B0044601680868764A4F
:104A50000240A06823690343606918431043E26978
:104A600010430860032630034B688343E068184313
:104A70004860A5696D4B994202D0206A284300E046
:104A800028460B252D028F68AF4307438F60684887
:104A9000814214DD0027674881421FD06648814269
:104AA0001CD06648814243D16648C06C8007000F25
:104AB00066A52F580125E803994213D13DE06048CF
:104AC000814205D0994233D15E48C06C000A01E0B2
:104AD0005C48C06C0C2505405B4847590125E8033C
:104AE00099422AD0824212D1082F00D996E0C046BE
:104AF0007F443F797F00BF44043C4691529191919D
:104B00007300FDF721FE002800D069E085E0082F42
:104B100000D983E07F443F797F00BF44042F3A7F70
:104B2000457F7F7F7200FDF70FFE002869D174E09A
:104B300010270125E8039942D4D1082F6ED8C0462A
:104B40007F443F797F00BF44046909690F6969693F
:104B50003500FDF7F9FD00282CD15EE039480068EA
:104B6000C00626D53E4825E0FDF708FE002821D1E5
:104B700053E0FDF7F3FD002832D14EE0FDF7EEFDE6
:104B800000283ED149E02F480068C00627D53448A8
:104B900026E02C480068C00632D5314831E0FDF7E8
:104BA000EDFD00281CD138E0FDF7E8FD002828D1F4
:104BB00033E02A4862685643B0422FD3110388423B
:104BC0002CD8010E56080002002380195941FBF72A
:104BD00007FB25494118254A91421CD31EE01F4876
:104BE000400061684A08101801F054F80246103A73
:104BF0001C498A4212D201400007400F08430AE0D4
:104C0000164861684A08101801F044F80146103946
:104C1000144A914202D22168C86000250020A06693
:104C2000E066284601B0F0BDF369FFEF00480040A0
:104C3000FF4B0040004C0040005000400038014055
:104C400000440040001002405063000801000000D2
:104C50000400000002000000080000000024F4002E
:104C600000093D00F0FF000000FDFFFF00FD0F0008
:104C700070B55823C25241650021816603465833FE
:104C80005A80846802468032002C12D001252E07FB
:104C9000B44208D02D03AC4214D10469002C0ED1CB
:104CA000254C9C800FE00469002C05D03F249C809B
:104CB00009E00469002C02D07F249C8003E0FF24DB
:104CC0009C8000E09980516022211160EFF31082F6
:104CD000012181F3108803689C680C439C6082F377
:104CE000108802690B0384689C4204D1002A14D006
:104CF000124A826603E0114B8366002A0FD0EFF35D
:104D0000108281F3108809214901006803680B4370
:104D1000036082F31088002070BD094A8266EFF3B9
:104D2000108281F310880068016820230B43036020
:104D300082F31088002070BDFF0100006D4900085B
:104D400095480008F0B585B01F4615460E46036825
:104D5000D9693140891B4A424A410021954222D1FA
:104D60000A9C002C22D00391611C24D1D9693140C6
:104D7000891B4A424A41954231D1D9693140891B48
:104D80004A424A4195422AD1D9693140891B4A4257
:104D90004A41954223D1D9693140891B4A424A414F
:104DA0009542E3D01BE0084605B0F0BDFCF7C8FE15
:104DB000032005B0F0BD402E049001D0802E14D108
:104DC000FCF7BEFEC01BA0420CD804980068016826
:104DD000C0693040801B414241418D42F0D0039870
:104DE00005B0F0BD032005B0F0BD78300190012082
:104DF0000090C002029006E0C8693040801B41422A
:104E000041418D42EBD1FCF79BFEC11B0320A14227
:104E10003ED8049909680A685207EDD5CA69120795
:104E200038D4CA69029B1A42E6D0029A0A62EFF3AA
:104E30001082012181F3108809235B01049C2468FE
:104E400025689D43256082F31088EFF3108281F37B
:104E50001088049B1B689C688C439C60049B82F3B5
:104E600010881A6E012A0BD1EFF3108281F310889B
:104E700019680B681024A3430B60049B82F310880D
:104E80002021019CA16000221A669A662270E160CE
:104E900005B0F0BD08250D62EFF31081009880F396
:104EA000108809225201049B1B681C6894431C60F3
:104EB00081F31088EFF3108180F31088049A126850
:104EC000936883439360049B81F31088196E0129D2
:104ED0000CD1EFF31081012282F310881A68136855
:104EE0001024A3431360049B81F310882021019AAE
:104EF00091600021196699661170D56005B0F0BD0A
:104F000080B50248FEF758F980BDC046AC010020CC
:104F1000AAB0FDF78FF91CA80C903821FBF736FBDF
:104F200000251B951A951995189517950DA82821F8
:104F3000FBF72CFB03200B90C002B0490A688243A8
:104F40007D20099000010A901018303008602695E5
:104F500005277803259024950124239410261C9678
:104F60000C98FDF747FC002803D0EFF3108072B6D1
:104F7000FEE70C970894079618950F20179019953F
:104F80001A951B9517A82946FDF7DAFA002803D0D1
:104F9000EFF3108072B6FEE71395109509200D907F
:104FA0000DA8FDF7B1F9002803D0EFF3108072B619
:104FB000FEE720951F951E951D951C95904801684C
:104FC0000422069211430160016811400D910D9970
:104FD00001688022114301600168049211400D9123
:104FE0000D990168089C21430160016821400D91E1
:104FF0000D9901680222059211430160006810407A
:105000000D900D980C9800070C90FF27F437394647
:105010002A46FCF78DFD1E95212000041D9060039B
:105020001C9078481CAE3146FCF7BEFC1F951E95BF
:105030001D941C970C9C20463146FCF7B5FC069845
:1050400020900B981F901E9505981D900C271C977B
:1050500020463146FCF7A8FC6B48E12149026B4A27
:10506000026041608560C560056147618561C56119
:1050700005624562FEF798FA002803D0EFF310802E
:1050800072B6FEE7049E6248624922C00560089C31
:1050900044608560C5600561456185610838FCF73D
:1050A000F3FD002803D0EFF3108072B6FEE75848F6
:1050B0000021FCF74BFD002803D0EFF3108072B6FF
:1050C000FEE7F14800273946FCF761FD002803D0D0
:1050D000EFF3108072B6FEE72003FCF779FDEB4D8D
:1050E000AE646920EA4969630A9CAC63EF63286493
:1050F0001D971C9734352846FDF78AFE002803D0FB
:10510000EFF3108072B6FEE71CA92846FDF752FEA9
:10511000002803D0EFF3108072B6FEE72846FDF7B3
:10512000EBFE01263046FFF7F0F90220FCF72AFCDF
:105130008020FFF7EAF94D20FFF758FA5020FFF7DB
:1051400055FA5520FFF752FA3620FFF74FFA30256F
:105150002846FFF74BFA3520FFF748FA2846FFF7B5
:1051600045FA2020FFF742FA4120FFF73FFA632576
:105170002846FFF73BFA2846FFF738FA6520FFF785
:1051800035FA6C20FFF732FAC020FFF7BEF9532042
:10519000FFF72CFA74252846FFF728FA6120FFF75D
:1051A00025FA7220FFF722FA2846FFF71FFA692036
:1051B000FFF71CFA6E20FFF719FA6720FFF716FABF
:1051C0002E252846FFF712FA2846FFF70FFA284641
:1051D000FFF70CFA2046FCF7D5FBAE4C611CA94842
:1051E0003246FEF74FFAA0782070032828D8C04630
:1051F00078440079400087440F12181D0070004069
:105200002C10024000080050AC0100200038014082
:1052100058010020005400401CA8077014E01CA88E
:10522000082101702320400610E01CA80799017096
:105230008B200AE01CA8182101704520000605E01B
:105240001CA80021017021708D20C00520640196EA
:105250001CA80090FD4302958B48D0211C223346A8
:10526000FCF788FE606A1E2801DB00F09DFA00F062
:1052700031FB1CAC0B98207000940196029582487B
:10528000D0210C916B223346FCF774FE27700094FA
:10529000019602951C227C480C993346FCF76AFE65
:1052A000277000940196089502951A2276480C9969
:1052B0003346FCF75FFE0C973E463D460A9F0B9631
:1052C0000898029006200A9001901CAC0094D0210E
:1052D0003B22012307936C48FCF732FD60781C9950
:1052E0000902091806916B4A9180E078A1780902B9
:1052F0000E18D68060791D9909020C181481079840
:10530000FCF740FB20B22D1830B20B9E0C99091807
:105310000C91069800B236187F1ED0D1099804016E
:105320002846214600F0D8FCFC4DE8630C98214645
:1053300000F0D2FCA8633046214600F0CDFC686343
:10534000089802900A9801901CAD0095D0213B224C
:1053500001234D48FCF7F4FC68781C9909020C18ED
:10536000EE488480E878A97809020E18EB48C680D8
:1053700068791D9909020818E8490881898F401A3F
:1053800000B2FBF703FBE5490D6C2946FBF72AFA4F
:105390000146E2480C91C164008F301A00B2FBF75D
:1053A000F5FA2946FBF71EFA0646FE488664808E0B
:1053B000201AFC4C00B2FBF7E9FA2946FBF712FA77
:1053C00007466064E568294600F08EFD002801D19B
:1053D000E7603D4624693846214600F090FD0028EC
:1053E00002D1F04807613C462046294600F0BAFE4B
:1053F000EC4C206565693046294600F075FD0028B3
:10540000204601D14661354684693046214600F088
:1054100076FD002802D1E3488661344620462946BD
:1054200000F0A0FEDF4D6865E9690C9C20460B91F9
:1054300000F05AFD2146002801D1E9610B912C6A48
:105440000846214600F05BFD0C99002801D1296235
:105450000C461148014006400740AF66EE662967DA
:1054600020460B9900F07EFEA865686A1E2800DAC7
:1054700066E700F099F900206862A862E862286394
:105480005EE7C046AC01002058010020E400002087
:105490000010004070000020FFFFFF7F10B50446A1
:1054A0000078401E072817D87844007940008744C8
:1054B000031421103442032F607A01280CD10020FC
:1054C0002070204600F0CCFA0120207208202070C5
:1054D00010BD607A00283ED010BD607A0128FBD153
:1054E00000202070204600F0A9F80120207203203F
:1054F000207010BD607A0128EED100202070204677
:1055000000F00EF9204600F01BFB0420207010BDB7
:10551000607A0128E0D1002004E0607A0128DBD124
:10552000002060602070204600F0E8FA0120207220
:105530000220207010BD607A0128CDD1002020709B
:1055400060681E2814D1204600F02EF905200121A4
:105550002172207010BD60780128BDD1002020701C
:10556000204600F02BFB012020720620207010BD89
:10557000A178012907D1204600F04AFB072001212C
:105580002172207010BD401C6060204600F0B6FA09
:10559000022001212172207010BDF0B581B00446B7
:1055A000807A002848D10125A572E169012915DB1F
:1055B000E06823696269805C491EE161591E8A4284
:1055C00004DB00216161012804D106E0511C616106
:1055D000012802D0022801D102202554207A00E0BF
:1055E00065540026667209E026722046FFF756FFD2
:1055F0006672A6706670207A002803D0C007F3D0C8
:105600006572F1E7E269012A15DBE16827696369E0
:10561000C95C521EE2617A1E934204DB324662612B
:10562000012904D1DCE75A1C62610129D8D0022982
:1056300001D10221D4E7A67201B0F0BDF0B581B06E
:10564000974CA08F2189081A00B2FBF79FF9266CAE
:105650003146FBF7C7F80090E064208FE188081A14
:1056600000B2FBF793F93146FBF7BCF80546A0649E
:10567000A08EA188081A00B2FBF788F93146FBF723
:10568000B1F806466064E768394600F02DFC002852
:1056900002D18348C66037468148046930462146B6
:1056A00000F02DFC002802D17D48066134462046DA
:1056B000394600F057FD7A4F38657E6928463146F5
:1056C00000F012FC002801D17D612E46BC692846FD
:1056D000214600F014FC002801D1BD612C46204673
:1056E000314600F03FFD7865FD69009E3046294651
:1056F00000F0FAFB002801D1FE6135463C6A3046D5
:10570000214600F0FCFB002801D13E6234462046D1
:10571000294600F027FDB86501B0F0BD70000020FB
:10572000F0B581B0F44F786C014600F0C3FCB96A63
:1057300000F026FC0646B862B86C014600F0BAFCE0
:10574000F96A00F01DFC0546F862F86C014600F0AD
:10575000B1FC396B00F014FC04463863786AFBF73F
:1057600015F901463046FBF73DF800F0DCFBF86523
:10577000786AFBF70BF901462846FBF733F800F08F
:10578000D2FB3866786AFBF701F901462046FBF741
:1057900029F800F0C8FB7866786A401C786201B08E
:1057A000F0BDC0467000002070B58AB00120FEF741
:1057B000ACFE02242046FCF7E5F88320FEF7A5FEA8
:1057C000374E3078002808D0012801D1042404E0A5
:1057D000022801D0102400E008246D4631A128469B
:1057E0002246FAF785FD2878002809D069464C1C26
:1057F000C0B2FEF7FBFE611C207800280C46F7D1F2
:10580000C020FEF782FE306EFAF7C2FF02460B465A
:105810006C4627A12046FAF76BFD2078002809D0B6
:1058200069464C1CC0B2FEF7E1FE611C20780028DE
:105830000C46F7D10020FEF768FE706EFAF7A8FF5D
:1058400002460B466C461DA12046FAF751FD207812
:10585000002809D069464C1CC0B2FEF7C7FE611C87
:10586000207800280C46F7D18020FEF74EFEF06D20
:10587000FAF78EFF02460B466C4613A12046FAF754
:1058800037FD2078002809D069464C1CC0B2FEF7CD
:10589000ADFE611C207800280C46F7D10AB070BD1F
:1058A0007000002020202020202020202564670078
:1058B00041793D252D362E3266000000417A3D2586
:1058C0002D362E326600000041783D252D362E32D1
:1058D00066000000F0B585B03220FCF753F80520D3
:1058E0000090050701242102002628463246FCF7D5
:1058F0001FF9284621463246FCF71AF9102101917A
:1059000028462246FCF714F9202102912846224617
:10591000FCF70EF94021049128463246FCF708F9BD
:105920008021039128463246FCF702F902272846D7
:1059300039462246FCF7FCF82046FCF723F82846B7
:1059400039463246FCF7F4F82046FCF71BF800987D
:10595000FCF718F8284601992246FCF7E9F8284692
:1059600002992246FCF7E4F8284604993246FCF7EF
:10597000DFF8284603993246FCF7DAF8284639461C
:105980002246FCF7D5F82046FBF7FCFF28463946AF
:105990003246FCF7CDF82046FBF7F4FF0098FBF702
:1059A000F1FF284601992246FCF7C2F828460299E1
:1059B0002246FCF7BDF8284604993246FCF7B8F8B1
:1059C000284603993246FCF7B3F828463946224662
:1059D000FCF7AEF82046FBF7D5FF2846394632469D
:1059E000FCF7A6F82046FBF7CDFF2046FBF7CAFFE1
:1059F000284601993246FCF79BF828460299224630
:105A0000FCF796F8284604993246FCF791F82846A8
:105A100003993246FCF78CF8284639462246FCF7B3
:105A200087F82046FBF7AEFF284639463246FCF79A
:105A30007FF82046FBF7A6FF2046FBF7A3FF2820B0
:105A4000FEF763FD0C20FEF760FD0620FEF75DFD0E
:105A50002046FEF75AFD3846FBF794FF05B0F0BD2F
:105A6000F0B58BB07D200390040100252E460895EB
:105A7000049507950498C04302900620019009AF51
:105A80000097D0213B22012306938148FCF758F967
:105A9000787809990902091805917C4A9180F8786B
:105AA000B97809020D18D58078790A9909020F187A
:105AB00017810698FBF766FF38B2361828B2079DA3
:105AC000089909180891059800B22D18641ED0D1C4
:105AD000039807013046394600F0FEF86B4CE0634E
