:020000040800F2
:1000000038080020A10100087D440008F3360008EC
:1000100000000000000000000000000000000000E0
:100020000000000000000000000000008144000803
:1000300000000000000000007F4400088344000826
:10004000B3010008B3010008B3010008B3010008C0
:10005000B3010008B3010008B3010008B3010008B0
:10006000B3010008B3010008B3010008B3010008A0
:10007000B3010008B3010008B3010008B301000890
:10008000B30100088D440008B3010008000000001F
:10009000B3010008B3010008B3010008F5360008F9
:1000A000B3010008B3010008B3010008394A000891
:1000B000B3010008B3010008B3010008B301000850
:1000C00000F002F800F05CF812A030C808382418DC
:1000D0002D18AC4201D100F053F80FCCA246AB462C
:1000E0000CA730CF2D1B083F3F197C427F1E544484
:1000F0002D090426F441641EAC4201D300F040F8FF
:100100000126334200D0FB1A3343984754465D46DC
:10011000DFE70000885B0000A85B0000103A02D314
:1001200078C878C1FAD8520701D330C830C101D598
:1001300004680C6070470000704700000023002432
:1001400000250026103A01D378C1FBD8520700D30E
:1001500030C100D50B60704710B5662902D105F09B
:10016000F9FC10BD002010BD1FB500F05BFE0400BF
:100170000020002105F07EFBE0601FBD10B510BD22
:1001800001F050FA1146FFF7EFFF04F05DFC01F0BB
:1001900068FA03B4FFF7F2FF03BC01F013FB0000A1
:1001A0000748804707480047FEE7FEE7FEE7FEE70F
:1001B000FEE7FEE704480549054A064B7047000084
:1001C0008B440008C10000083802002038080020D5
:1001D0003804002038040020FEB5044610460D46C1
:1001E000184373D0A6468C460020A41A01469D41B0
:1001F00067D36646002701243D46B61A9D4102D3C7
:1002000013463A462124654676462F04360C3E4373
:100210002D0CB61A9D4104D3150C1B042B4312045C
:100220001034654676462F06360A3E432D0AB61A26
:100230009D4104D3150E1B022B4312020834654660
:1002400076462F0736093E432D09B61A9D4104D341
:10025000150F1B012B431201241D65467646AF077F
:10026000B6083E43AD08B61A9D4104D3950F9B00D6
:100270002B439200A41C65467646EF0776083E4362
:100280006D08B61A9D411AD392185B41641C16E0A2
:100290000018764665464941B71A9D410191009084
:1002A00009D36046B11A98418E4684460098019958
:1002B0000025401C6941DD0752082A435B08641E83
:1002C000E6D57246634603B0F0BDFFE720462843FB
:1002D00007D00020C0430146C046C04622462B46F8
:1002E000F1E700200146F7E70FB41CB5074B06AA5B
:1002F0007B4469460090059800F033FD0020694674
:1003000000F042FD1CBC08BC04B01847950A000070
:1003100070B5044685690068C10601D5302600E045
:100320002026C00707D070BD62683046A16890479C
:10033000206A401C20626D1EF6D570BD70B5044663
:1003400085690078C00707D170BD6268A168202068
:100350009047206A401C20626D1EF6D570BD0000DB
:10036000F3B50446002081B020622046E16888474A
:1003700000287DD0252802D06268A16883E0454F1F
:1003800000257F442046E16888472028064608DB90
:10039000312E06D2B81920380078002801D0054344
:1003A000F0E7A80701D5042085430020E061074657
:1003B000A0612A2E0AD0304605F03EFA002827D048
:1003C000B8000019303E0090866119E00298BA002A
:1003D000121902C8916102902046E1688847012FF6
:1003E000064617D1E06900281FDA202085431CE06B
:1003F00000980A2180694843009980193038886143
:100400002046E1688847064605F016FA0028EFD135
:10041000012F0AD02E2E08D12046E16888470646D3
:10042000202005437F1C022FC3DBA069002803DACC
:100430004042A06101200543E80701D01020854318
:10044000002E24D030464138192803D80120C0029C
:1004500005432036204625603146029A1546FFF7AF
:100460007BFE00280CD0012807D0ED1DE80800E035
:100470000DE0C0000830029077E72D1D029574E76B
:1004800062683046A1689047206A401C6CE7206A89
:10049000FEBD0000DE57000030B5441C03E00178CB
:1004A000401C00290DD08107F9D10B4BDD0104C898
:1004B000D11A91432940FAD0001B0A0603D0C01E6E
:1004C00030BD001B30BD0A0401D0801E30BD0902C2
:1004D000FCD0401E30BD00000101010101E004C05C
:1004E000091F0429FBD28B0701D50280801CC90794
:1004F00000D00270704700290BD0C30702D00270F1
:10050000401C491E022904D3830702D50280801CA7
:10051000891EE3E70022EEE70022DFE7002203095D
:100520008B4273D3030A8B4258D3030B8B423CD3C9
:10053000030C8B4221D312E003460B437FD40022ED
:1005400043088B4274D303098B425FD3030A8B4267
:1005500044D3030B8B4228D3030C8B420DD30902E7
:10056000FF2212BA030C8B4202D31212090265D089
:10057000030B8B4219D300E0090AC30B8B4201D352
:10058000CB03C01A5241830B8B4201D38B03C01A99
:100590005241430B8B4201D34B03C01A5241030B10
:1005A0008B4201D30B03C01A5241C30A8B4201D3C1
:1005B000CB02C01A5241830A8B4201D38B02C01A6C
:1005C0005241430A8B4201D34B02C01A5241030AE3
:1005D0008B4201D30B02C01A5241CDD2C3098B42C8
:1005E00001D3CB01C01A524183098B4201D38B0145
:1005F000C01A524143098B4201D34B01C01A5241E8
:1006000003098B4201D30B01C01A5241C3088B422C
:1006100001D3CB00C01A524183088B4201D38B0017
:10062000C01A524143088B4201D34B00C01A5241B9
:10063000411A00D201465241104670475DE0CA0F90
:1006400000D04942031000D3404253409C46002250
:1006500003098B422DD3030A8B4212D38901FC225A
:1006600012BA030A8B420CD3890192118B4208D330
:10067000890192118B4204D389013AD0921100E092
:100680008909C3098B4201D3CB01C01A52418309A6
:100690008B4201D38B01C01A524143098B4201D3D3
:1006A0004B01C01A524103098B4201D30B01C01AFE
:1006B0005241C3088B4201D3CB00C01A5241830878
:1006C0008B4201D38B00C01A5241D9D243088B42CE
:1006D00001D34B00C01A5241411A00D20146524187
:1006E000104663465B1001D34042002B00D54942BF
:1006F000704763465B1000D3404201B504490028AF
:1007000002DC491C084000E00846C046C04602BD65
:10071000FFFFFF7F70477047704700000121C90548
:100720000123411842001B06D3185B0E0AD0C110EA
:100730000722D206891840075242D14201D5520001
:1007400089187047090208D50146002A03D0C10F55
:10075000C9070020704710467047420202D00020AF
:1007600002497047072109050143F4E70000F87FBB
:10077000F0B5FF252D04C609C209FF2704462E4007
:100780000137CB093E4348402A402B400746002A08
:100790006BD0002B69D0AA4267D0AB4265D000284D
:1007A00000DA32460125ED0529432C4309022002D7
:1007B000090AD21A4B0C7F24E31A434C000A7C44EA
:1007C000E35C7D242404121914145B00A2188842EF
:1007D00001D3521C00E0400049420C465C43241106
:1007E0005C43DB016415E318040A5C43C502200D79
:1007F0000C4644436419250A5D432303EC0C0D4663
:10080000654300030019EB184C42A34201D35B1867
:10081000401CD4052018002B07D05B00C91804D356
:10082000401C002901D1400840003F2189048A4230
:1008300009D3002A08DC1106090F04D00321490757
:100840004018C00FC007F0BD0122410012068918F0
:100850007F2252069142F6D205214907C84201D5AE
:100860009010F0BDFF20C005F0BD002F00DA324629
:100870001648AA4207D2AB4205D21902090E17D078
:10088000F80FC007F0BDFF2563002D06AB42F9D875
:100890004900A942F6D8AB4201D1A942F2D0A942FF
:1008A00001D1002101E061004908D0050843F0BDF5
:1008B0001102090EFBD0FF200243D005F0BD0A460D
:1008C0000146104654E70000B35300000000C07F0B
:1008D0001F22030C02D10F2200041CD0030E01D1F1
:1008E0000002083A030F01D10001121F830F01D14A
:1008F0008000921E002801DB4000521ED2055118D4
:10090000021251181922904004D3491C002801D129
:100910004908490008467047C10FC90700D0404246
:10092000012292071143D3E701218907D0E710B5CF
:1009300000F07CFA006810BD10B5044600F076FAAD
:10094000046010BDFFB50C461E468FB003CA089068
:1009500009914F007D0D00D16D1E00210846002039
:10096000C0460321099A89050840002A03DA82005B
:10097000801840080840800D01280A9002DD002000
:10098000C0430A90089807430DD0F048F049281852
:1009900048430714189800281DD07542291E1DDDF4
:1009A0000A9842421BE01898012802D0002030210A
:1009B00004E00020F24305E02154401CB042FBDB80
:1009C00030460022189B002121540F998B600A6049
:1009D000486013B0F0BDBD1B6D1CDFE70A9A00290B
:1009E00000DA69420BA800F0A7FA0BAB07CB03AB08
:1009F00007C30899099800F00BFB6B4607C3014633
:100A0000D4480918002D00910BDDD24903980A9AA9
:100A100049424018002303A90390684600F068FD8E
:100A200008E003990A9A0023081803A9039068466E
:100A300000F008FD6B4607C30004000C03D0002043
:100A4000C043410800E01046189A002A03D0002253
:100A5000009215461EE0751E05D400F0EBF9303209
:100A600062556D1EF9D501220843079602D0002277
:100A70007F1C04E02078302801D100227F1E002A4C
:100A8000069787D01EE0112D07DA00F0D3F9303237
:100A900062556D1C02460A43F5D1084303D0009805
:100AA000002819D00EE00021681E05E0235C625C7E
:100AB00063542254401E491C8142F7DBA81B401E90
:100AC00007950690079A18990020A0540F98079B45
:100AD000069A81600CC07CE711260020189059E727
:100AE000D21DF0B50D460446D10893B0C90003C924
:100AF0000C900D9104F072FE02460D98C00F01D0CB
:100B00002D2007E02068810701D52B2002E0400757
:100B1000C00F4001032A0F9001D0072A05DB0346CE
:100B20002946204600F0C4F90EE12078800601D560
:100B3000E76900E006272846652D04D0662814D012
:100B4000672D69D12DE00020112F009001DB1123CA
:100B500000E07B1C0CAA03A910A8FFF7F3FE119973
:100B6000002610987D1C0E9142E001203B460CAA05
:100B7000C0070B900120009003A910A8FFF7E2FE28
:100B8000119D12981099002600280E9501D1781C0D
:100B90000D18781B02D446427D1C761EE81B00907F
:100BA0003AE0012F00DA01270020112F009001DD2B
:100BB000112300E03B460CAA03A910A8FFF7C2FED0
:100BC00011993D46109800260E91217809070BD403
:100BD0000E99A94200DA0D4603A9012D04DD4A1938
:100BE000203AD27F302A06D0B84201DA011D04DA59
:100BF000012100910FE06D1EEFE7002802DC86194D
:100C00002D1A03E0411CA94200DD0D46801B401C4B
:100C100000900120C0070B902078000705D40098B1
:100C2000A84202DB0020C043009069460020C87241
:100C30000B98012102AF0337C907884225D0022053
:100C400010902B2011900B9800280BDA40420B904B
:100C50002D20119006E00B9800F09AFC30317F1E99
:100C60000B9039701099481E00291090F3DC0B98F6
:100C70000028F0D111987F1E38702088000501D51A
:100C8000452000E065207F1E387001A8C01BC01DF4
:100C90000B900F98002800D0012041190098C01730
:100CA00009180B980818A169081A401EA06120783D
:100CB000C00602D42046FFF72BFB0F98002805D072
:100CC0006268A1689047206A401C20622078C006B4
:100CD00025D52046FFF71CFB21E0002E07DB0E98F0
:100CE000B04204DD03A86268805DA16802E062682A
:100CF000A16830209047206A761C401C2062009832
:100D0000401E002800900AD100F08CF8C06862688C
:100D10000168405CA1689047206A401C2062284618
:100D20006D1E0028D9DC07E062683878A1687F1C56
:100D30009047206A401C20620B99481E00290B90A6
:100D4000F2DC2046FFF7FAFA032042E601FCFFFF3F
:100D5000104D0000E1DFFFFF01694A1C02610878C5
:100D6000704700B58FB002910021059105490193AC
:100D700079440391114604906846FFF7F1FA0FB0E9
:100D800000BD0000E5FFFFFF0A681070521C0A60FA
:100D90007047000030B5C30D1906214A090E31D045
:100DA000FF292FD000283ADB010250020143012025
:100DB0007D33C34000D24908012080071724091A57
:100DC0002406490882102343FF252D064C00211AD2
:100DD00004D4891A02D45400201800E02146520895
:100DE0005B19F3D51A220446944007D382068A423F
:100DF00003D180218030884300E08030C009D905CC
:100E0000081830BDFF2904D04100FAD0C00FC00738
:100E100030BD410201D0104630BD0028FCDAFAE7AF
:100E20000000C07F00487047300000200048704735
:100E3000100000200B4670B5024689078008084361
:100E400019469D08141AA9412509080705430809F0
:100E50002C194841250A01060D43010A2C1941416C
:100E6000200C0D0428430D0C00194D4100214019A0
:100E70004D41C00869070843E908840F8D002543E8
:100E8000840024184D4124196D41121BAB4107E029
:100E90000925ED432C11521963410024401C614186
:100EA0001C460A250026551BB441F1D270BD000036
:100EB000F8B51F46044601230068DB0203260146FD
:100EC0001840072A05DB002801D017A506E017A562
:100ED00004E0002801D016A500E016A510208143EB
:100EE0002160A069C01E002FA06101D0401EA0613A
:100EF0002046FFF70DFA002F09D038466268A16836
:100F00009047206A401C2062C01C206206E0206AD4
:100F1000FAE762682878A1686D1C9047761EF8D2BF
:100F20002046FFF70BFAF8BD4E414E006E616E0091
:100F3000494E4600696E6600F7B516468AB03348DA
:100F400078446C4603467C33C06F5A689B680DC476
:100F50002E487844763003AC0DC80DC43720C0014C
:100F6000081837211B30FFF7E7FA05460C46803D8D
:100F70001B3C02D56442012000E0002000270990BC
:100F800010E0E0070CD00C20204978437944324629
:100F90004C3941186846012300F054FA6B4607C3E8
:100FA00064107F1C002CECD1184F7F442E3F16E0BC
:100FB000E80712D02001C0190EC8069108930792C5
:100FC0000068F04201D1981908903246012306A921
:100FD00003A800F037FA03AB07C36D10641C002DA3
:100FE000E6D10998002806D032466946012303A8B5
:100FF00000F07EFA05E001233246694603A800F0BE
:1010000021FA0A9B07C30DB0F0BD0000744C00002C
:10101000034640000A4610B5400D0BD00121C90718
:101020000F24A40200191C0364082143540D21431A
:10103000D20207E000210120F2E7D40F490021434A
:101040005200401E0029F8DADB0FDB07184310BD01
:10105000FFB50D46144685B04868516804F0A5FBFD
:1010600000910190A868A16804F09FFB0291039091
:10107000A868616804F099FB029A121882420292F1
:1010800001D2012000E00020019A0B18D21800289C
:10109000019202D08A4202D903E08A4201D20120A1
:1010A00000E000200099081800906868A16804F02A
:1010B0007CFB029A12188242029201D2012000E0C7
:1010C0000020019A0B18D2180028019202D08A42FF
:1010D00002D903E08A4201D2012000E000200099F9
:1010E0000818009028682168400049004008490815
:1010F0004018FA49471814E001994000C90F084305
:101100000090019802994000C90F0843019002988D
:1011100003994000C90F08430290039840007F1EC6
:10112000039000980028E7DA0898002801D0EC4ED8
:1011300000E00026B74201DA012000E0002000288C
:1011400004902AD0F71BF806C00E15D0029B202170
:10115000091A039A8B401A430392029A019BC240D8
:101160008B401A430292019A009BC2408B40009927
:101170001A430192C14000917B110DD06F460320AC
:10118000C11A03D500218200B95003E08A00810012
:10119000BA587A50401EF3D5374603980299002872
:1011A00000D00120014308980291002808460CD085
:1011B000002800D001200199019A49050843012126
:1011C000D20AC902D202019200E001210E9B012243
:1011D000D207012B02D0002B03D013E0002807D147
:1011E00020E0904204D890420CD1019B0B4209D0E0
:1011F000019B5918019105D10099491C009101D119
:101200007F1C009200280DD0102108460020C04607
:101210000498002806D00F98002803D0082108461B
:101220000020C04628682168019B009A4840C10FF1
:101230000598C90739430EC009B0F0BDFFB587B0A6
:10124000099A089808995368926840688968964690
:101250000022039317469446089A12685300099A8D
:101260005B081268520052089A1A9E4BD4180A9AC8
:10127000002A01D0352200E04022069200220123FC
:1012800015460492DB07059324E0002D05D1754631
:101290000346039E4D1BB34109D375466646039B27
:1012A000491B049D9841059B7519AC465F416346F7
:1012B0003B4308D0059B049EDD0776082E435B0860
:1012C0000496059301E0521E641EC50FED074918F0
:1012D0004041521C069B9A42D7DB002D04D1754633
:1012E000039A6B1A824101D203200CE0039A0B4649
:1012F0006B404240134303D0014303D0012002E07E
:10130000022000E000206146019100210097029137
:101310000A99002905D0614640020143704B0191B2
:1013200002E08007002302909C4201DA012000E0E5
:10133000002007003AD01A1BD006C00E15D0029D1F
:101340002021019C091AC5408C402543029C8C40F9
:1013500000D001242543019C0295009DC4408D408E
:1013600000992C430194C140009154111DD06D4649
:101370000221002202290CD10320001B07E00028D3
:1013800004DB8600AE59002E00D00122401C032849
:10139000F5DB081B02D588002A5004E0800028589D
:1013A00010438A00A850491EE3D51C460A9800281D
:1013B00002980CD0002800D001200199019A49051B
:1013C00008430121D20AC902D202019200E00121A0
:1013D000109B0122D207012B02D0002B03D013E077
:1013E000002807D11FE0904204D890420CD1019B05
:1013F0000B4209D0019B5918019105D10099491C54
:10140000009101D1641C009200280CD010210846E4
:101410000020C046002F06D01198002803D00821D4
:1014200008460020C04608980999019A009B006868
:1014300009684840C10F0798C907214382600AC064
:101440000BB0F0BD00B585B0019300920A4601468D
:10145000002302A8FFF7FCFD02A807C805B000BDE5
:10146000FFB50A461F4685B00799019301230091F5
:10147000014602A8FFF7ECFD02990398049ECA0FEB
:101480004900D20700920F22490892028C1A0021CB
:10149000002800DB0C46450013486D08844214D335
:1014A000079A002A04DA441E0026104DF64302E093
:1014B00004460D460E46102108460020C046002F67
:1014C00003D0042108460020C0462005E90A08434D
:1014D000009908436905F20A1143ADE602C0FFFF17
:1014E000013C0000FF3F0000FF070000FFFFFF7FFF
:1014F00000B585B0019300920A460146002302A878
:10150000FFF79CFE02A807C8A8E7FFB50A461F46DA
:1015100085B00799019301230091014602A8FFF7C6
:101520008DFE02990398049ECA0F4900D2070092CB
:101530000F22490892028C1A0021002800DB0C4679
:10154000450011486D08844214D3079A002A04DA32
:10155000441E00260D4DF64302E004460D460E469D
:10156000102108460020C046002F03D00421084661
:101570000020C0462005E90A084300990843690590
:10158000F20A114358E60000FF070000FFFFFF7F4B
:1015900001468008081A02091018020A1018020CE5
:1015A0001018C008820012185200891A01E0401C6D
:1015B0000A390A29FBD2704710B5FF231B064400E5
:1015C0009C421DD84C009C421AD80346124A0B4339
:1015D00007D4401A02D3EFF3008010BDEFF3008070
:1015E00010BD081A03D3EFF30080904305E0EFF33A
:1015F000008001219043C907084380F3008810BD93
:101600000D231B041A4204D01146002000F08AF872
:1016100010BD00F09FF810BD00000090004870471A
:10162000100000207546FFF7F9FFAE460500694639
:101630005346C008C000854618B020B5FEF7BAFD75
:1016400060BCB64600260027C0C5C0C5C0C5C0C521
:10165000C0C5C0C5C0C5C0C5403D490849008D468C
:10166000704710B50446C046C0462046FEF791FDBF
:1016700010BD000082078B079A423FD170B5920FD0
:101680000AD0032402780B78401C491C002A33D06E
:101690009A4231D12042F5D1214EF40104C808C943
:1016A000951B9543254018D19A420FD104C808C90B
:1016B000951B9543254010D19A4207D104C808C90B
:1016C000951B9543254008D19A42E7D012BA1BBA20
:1016D00001209A4200D2404270BD12BA1BBA2DBA04
:1016E00018241000E0401900E140401A05D12E00F6
:1016F000E64002D1083CF4D1D01A70BD02780B78D4
:10170000401C491C002A09D09A4207D102780B7864
:10171000401C491C002A01D09A42EFD0D01A7047D1
:1017200001010101C80212D54803400F002804D06E
:10173000C803C043012188407047EFF300800001D7
:10174000000903210907084380F30088704700203F
:101750007047000010B5024800F004F810BD00000A
:101760000000C07F10B50C461107090F092904D0ED
:101770000A290AD008290CD104E011460820FFF7F5
:10178000D1FF06E0510606D501E0510601D5012042
:10179000C007214610BDD10607D501010909CC08B3
:1017A0004907000E0006044309E0410F20024907E3
:1017B000000A0143200E00061D22D14101430846C4
:1017C000E7E7000001491820ABBEFEE72600020053
:1017D000704710B5014624314A78022A14D10268B4
:1017E00013680E24A343136013680124A3431360FA
:1017F000026C406C1C2303402046984050604C70A3
:10180000002000220A7010BD0422C26301200022C1
:101810000A7010BDB0B5014624314A78022A18D1A9
:10182000026813680E24A343136013680125AB43B9
:101830001360026C436C1C241C402B46A340536075
:1018400000240C704D70816B002900D08847204621
:10185000B0BD0421C1630120B0BD2521405C7047AB
:10186000B0B5044600F0DAF80546601C02D0044822
:101870000078241800F0D2F8401BA042FAD3B0BD83
:1018800000000020F0B58AB007900B68002B00D153
:10189000B3E00E465A480799814201D0062000E085
:1018A00005200B210907079A52180A21CA41019203
:1018B000052A00D301900798203000900022154699
:1018C0001746029619460BE021434E4801607F1CE3
:1018D00031680846F840121DAD1C002800D18CE08C
:1018E00001231846B8400140F1D0059306920391B8
:1018F000324603263146A9400495CD4351680C4633
:101900003440631E012B0895099110D807998B6804
:101910002B40D668049DAE401E438E60099AD306C4
:10192000DB0FBB404E6886431E434E6006E0032C2F
:10193000049D03D13446029E069A1DE00799C868AB
:10194000089A1040029EB368AB400343CB60022C60
:10195000069A11D11C2010400F218140FB089B00EA
:10196000009AD4588C43316981402143D150069A62
:101970007068032409900440AC4007990868089BEC
:1019800018402043086009988003800F059B9ED073
:101990004B490868184308600C2010400F21814013
:1019A00003233C469C43184BE3588B4301998140E9
:1019B000194315482150134881687068C30202D545
:1019C000039C214301E0039CA1430E4B9960D9681D
:1019D000830201D5214300E0A1430A4BD960596835
:1019E000830301D5214300E0A143064B59601968E8
:1019F000C00300D568E7A14367E70AB0F0BDC04661
:101A0000001C00500004014008000140002A02D0E0
:101A10001822815070472822815070470148006881
:101A20007047C04630020020B0B50246034640333E
:101A30005C780220202C17D11C78012C14D0242093
:101A40005870106802680124A243026022030568EE
:101A50009543056002680A43026001682143016002
:101A60000020187020215970B0BDB0B50246034661
:101A700040335C780220202C17D11C78012C14D024
:101A800024205870106802680124A24302600F22CB
:101A90001202056895430902294301600168214348
:101AA00001600020187020215970B0BD04490A68F7
:101AB000012313430B6003490A6802430A6070471D
:101AC000341002400400014070477047F0B581B007
:101AD0000122150201688B691C462C406642664152
:101AE0000F6880243C4067426741374304D1466C0D
:101AF000012737434764CD61654265415E0516465F
:101B000000D52E46002E05D19502466C0827374396
:101B10004764CD61654265419B05134609D4002B9E
:101B20000AD0416C0B22114201D001F063FE01B0DA
:101B3000F0BD2B46002BF4D15202436C02241C430F
:101B40004464CA61416C0B221142EED1EFE780B5CB
:101B500002689169436B1268002B00D0984780BDE2
:101B600070470000F0B581B0002822D0054640350E
:101B70006978002905D100212970044600F082FA15
:101B800020462421697001680B68012293430B6091
:101B90000F231B0644689C430C618C681C4B1C4043
:101BA0008C608468C668012E06D1D60334438C60ED
:101BB0000CE0012001B0F0BD2127BF023C438C6046
:101BC000022E03D1D4024E68264302E0D4024E68AE
:101BD000A6434E604C680F4E26434E60CC681C40B6
:101BE000CC60036944691C4383691B022343CB60B7
:101BF000C369046A1C430C600B6813430B6000212B
:101C0000416420226A7001630846A97001B0F0BDEA
:101C1000FF7FFFFF0080000270470000F0B589B031
:101C200004460646403675780220202D09D10E9FC5
:101C3000002F08D00F9D002D05D007953578012D78
:101C400006D109B0F0BD01204102616409B0F0BDC8
:101C50000397059302920691012008903070FFF7D8
:101C6000DDFE02462068816909042FD41099049191
:101C7000222171704021B170002767640799618546
:101C8000039961626763F949069B0B400599C9B2E4
:101C900009040693C9184368F54D2B40C918012360
:101CA00008935B03C918416020460499154602F069
:101CB000B7FA002846D103970795206805990129AE
:101CC00026D10299C9B28162079D31E00898C50307
:101CD00002E081692942C9D019212046174602F045
:101CE00023F8002811D1FFF799FEC11B20681A299B
:101CF0003A46EED381692942EBD0606C202108433B
:101D00006064717000203070B070089809B0F0BD48
:101D10000299090A816220460499079D2A4602F029
:101D20007FFA0028039F0DD121680298C0B2886213
:101D30000095402100222046049B02F0B1F90028C2
:101D4000039F03D03770089809B0F0BD608D000A7A
:101D500007D020684168C64A1140021D01203A4B55
:101D600009E0608D22685368C1490B40C1B2090483
:101D70001943121D334B069F1943394311602085C7
:101D800001200890400638180590079A049D0FE03E
:101D9000608D208521684A68B84B1A40C0B20004A3
:101DA000059B184310434860079A608D002834D083
:101DB00000920421002720463A462B4602F070F993
:101DC0000028A2D1606A2168496A0170608D401EB6
:101DD0006085606A401C6062208D401E2085618D98
:101DE0000029079AE1D00004DFD10092802100226F
:101DF00020462B4602F054F9002886D1608D000A57
:101E0000C6D00120208521684A689C480240069877
:101E100002430E4802434A60C6E72046294602F0C4
:101E2000BCF90028089800D00BE720682021C16188
:101E30004268934B1340436071703770B7703846F7
:101E400009B0F0BD002400020024010100000101DE
:101E5000F0B589B00446074640377D780220202D32
:101E600009D10E9E002E08D00F9D002D05D007959C
:101E70003D78012D06D109B0F0BD01204102616419
:101E800009B0F0BD039604930292069101200590DB
:101E90003870FFF7C3FD06462068816909042DD418
:101EA0000896109D212179704021B9700026666442
:101EB000079961850399616266636C49069A0A40D5
:101EC0000499C9B20904069289184268684B134004
:101ED000C918684A89184160204607952946089A1A
:101EE00002F09EF9002845D1039620680499012943
:101EF00025D10299C9B28162089D30E00598C503D9
:101F000002E081692942CBD019212046324601F0F6
:101F10000BFF002810D1FFF781FD811B20681A29D3
:101F2000EFD381692942ECD0606C202108436064C2
:101F3000797000203870B870059809B0F0BD02992A
:101F4000090A816220460799089D2A4602F068F92D
:101F50000028039E0ED121680298C0B288620095C5
:101F60008021002520462A46079B02F099F8002888
:101F7000039E03D03E70059809B0F0BD0395012083
:101F80004606618D090A3C4A3C49059006D0206806
:101F90000B4641681940051DFF2008E0608D22684E
:101FA00053680B40C1B209041943151D3246069B04
:101FB00011431943296020851E430496089A079E01
:101FC0000FE0608D208521684A682C4B1A40C0B212
:101FD0000004049B184310434860608D0028089A51
:101FE0002FD02046314602F01BF90028A4D12068EA
:101FF000616A0A788262608D401E6085481C60625A
:10200000208D401E2085618D0029E6D00004E4D19A
:1020100008980090802100222046334602F040F8C4
:10202000002889D1608D000ACBD0FF20208521684F
:102030004A6812480240069802430F4802434A6029
:10204000CBE72046314602F0A8F80028059800D0DA
:1020500011E720682021C1614268094B13404360A9
:10206000797003983870B87009B0F0BDFF030000B4
:10207000009800FC002000010000FF01009C00FC13
:1020800000E800FEB0B586B00024059404940394E3
:102090000294019400681549884201D006B0B0BD91
:1020A000134D2868022108432860286808400090E2
:1020B0000420059003941220029003200490000253
:1020C000019000980B4801A9FFF7DCFB01204005B7
:1020D000E9680143E960172528462146224600F0B9
:1020E00065F8284600F056F806B0B0BD0054004030
:1020F0002C10024000040050704770471D480078C3
:1021000002490A68101808607047C0463002002073
:1021100010B50848016840220A43026000242046A6
:1021200000F00AF8002801D0012010BD00F026F8C8
:10213000204610BD0020024070B504467D20C0003E
:102140000C4E317803F036FA01460B48006803F074
:1021500031FA00F083FD0125032C08D8002806D1B0
:102160000025E84321462A4600F020F874602846FE
:1021700070BDC0460000002008000020044801682F
:10218000012211430160110742680A43426070470F
:1021900034100240002805D41F210840012181404D
:1021A000014801607047C04600E100E0002805D406
:1021B0000322034693430A4A9A1803E00C22024082
:1021C000064BD2188007C00E8901C9B28140FF2397
:1021D00083401068984308431060704714ED00E096
:1021E00000E400E0F0B589B0066801252F02EA029C
:1021F00011462031874B0E427CD00592089029076A
:10220000143B18680840049002D11868084318600D
:1022100001930291804C2068384211D120683843E4
:102220002060FFF7FBFB06462068384208D1FFF725
:10223000F5FB801B6428F7D90325284609B0F0BDBB
:102240000326340573484C38069001682140089BEA
:1022500058680246039422400096340491420AD101
:1022600002462240A242069E0DD19A68039B1A4064
:10227000914205D107E001462140A142069E02D1CC
:1022800031688903D9D4634B59680794214021D020
:10229000079A1040814203D00898007880060AD43B
:1022A00008988068079A1040814213D00898006807
:1022B000059908420ED05868E9045A680A435A60E2
:1022C0005A688A435A600146079A914359603842D6
:1022D00000D08CE00898066805990E42079C59D1F9
:1022E000B1066DD40499002904D1019C2168029A99
:1022F00091432160F1070DD1B10713D4710719D4AF
:10230000310720D43E4227D171062ED40025310654
:1023100093D535E0196803229143C2680A431A60D5
:10232000B107EBD519680C22914302690A431A6080
:102330007107E5D5032189021A688A43416911436F
:1023400019603107DED5032109031A688A438169C0
:10235000114319603E42D7D0032109041A688A4309
:10236000C169114319607106D0D5012189061A6827
:102370008A43416A114319600025310600D45CE7A5
:1023800003218A0419689143006A084318602846AB
:1023900009B0F0BD826811462140A1420BD10398DB
:1023A000024003231B05069D2C689C43194B08988B
:1023B00014432C60079C5A680A435A60B10691D5B1
:1023C000426811462140A1420AD1039802400323EA
:1023D0001B05069D2C689C430E4B089814432C60EB
:1023E0005A680A435A600499002983D17DE7FFF7B0
:1023F00015FB0546884C074B5868800500D569E7F2
:10240000FFF70CFB401BA042F5D9009D284609B000
:10241000F0BDC0464C10024000700040F0B583B0E3
:10242000002846D00E4602907A48006801210191AA
:102430000840864216D9774908680125A8433043E9
:102440000860754CFFF7EAFA0746724800682840B2
:10245000B04207D0FFF7E2FAC01BA042F5D9032033
:1024600003B0F0BD029D28688107794C05D521682D
:10247000F0229143AA680A432260C0071CD1654834
:10248000006801273840864224D262490868B84370
:102490000860614CFFF7C2FA05465E480068C00755
:1024A00018D0FFF7BBFA401BA042F6D9032003B0B7
:1024B000F0BD012003B0F0BD6A6821460C390968FF
:1024C000012A34D0032A2DD0022A72D1890301981F
:1024D0002BD52FE0029B186841075D4C06D50721DC
:1024E000090222688A43D96811432160000707D591
:1024F0000720C002216881431869C000084320609A
:1025000021680807820F6E487A4412795200974476
:102510000154735B38042146083909680904490FDE
:10252000884069E08901019804D403B0F0BD4907EF
:102530000198FAD52168032001908143114321605D
:10254000FFF76CFA07466868334D03282BD0022842
:102550001ED001280AD120680C21014004298ED008
:10256000FFF75CFAC01BA842F5D909E02068000714
:10257000800F00D183E7FFF751FAC01BA842F5D9BD
:10258000019803B0F0BDFFF749FAC01BA842F7D885
:1025900020680C2101400829F5D170E7FFF73EFAC9
:1025A000C01BA842ECD820680C2101400C29F5D1B1
:1025B00065E789050198B8D5BCE720460C38006866
:1025C000C00612D5414817E08A02120F3D4B9A5CB3
:1025D0000902890F491C2368DB0309D420460C3803
:1025E0000068C00603D5394802E0374804E03648A1
:1025F0004243104602F0DEFF21680906090F074A30
:10260000515CC8401149086005480068FFF794FD17
:1026100003B0F0BD00200240881300004C5C0008AD
:102620000400002009480068094909684905490F64
:10263000084A515CC840704704480068044909686A
:102640008904490F034A515CC840704708000020C4
:102650000C1002405C5C000810B5844BD968080778
:10266000820F17487A441279520097440108070DE7
:102670000120000459680904490F884010BD1868FA
:10268000C00614D5114810BD8A02120F0D4CA25C71
:102690000902890F491CDC68E40303D41868C006EA
:1026A00007D50A484243104602F084FF10BD064891
:1026B00010BD05484243104602F07CFF10BDC046E5
:1026C00000127A00645C00080024F40000093D0058
:1026D000F0B589B0002855D0644EF1680C220A404C
:1026E0000692012105910904F76804910F400790B3
:1026F0000078C00710D00698082806D006980C2845
:1027000000D0D5E0002F00D1D2E03068800303D59F
:1027100007984068002850D0079B1878800734D469
:102720001878C0064CD407980078000766D407993B
:102730000878400700D59BE00878800600D51EE1A8
:102740000798846A002C1AD006980C2800D067E1FC
:10275000012C32D0F068049A0240079BD96A8A4261
:102760002BD10F21890401401A6B914225D10321FD
:1027700089050840596B8842059800D057E200202F
:1027800009B0F0BD012009B0F0BDD868810604D5BC
:10279000316820221143316090430699042906D004
:1027A00006990C2900D0A9E0002F00D0A6E03168DE
:1027B00000283AD10422114037D0059809B0F0BD65
:1027C000012044020699002900D1ADE03168079A42
:1027D000D2690002002A00D101E101433160FFF714
:1027E0001DF905463068204200D008E1FFF716F9D0
:1027F000401B0228F6D9032009B0F0BD306D0799BF
:102800004969002900D1D9E0012108433065FFF76B
:1028100005F90546306D800789D4FFF7FFF8401BA6
:102820000228F7D9032009B0F0BD1F210902726800
:102830008A43196909021143716031680922914381
:1028400001433160F1680807820FFA485200C04620
:102850007A4492885200974403002401DA013B0134
:1028600070680004410F04988840D0E100100240D5
:1028700001221107B06B0840029002D1B06B0843EF
:10288000B063019103921402F14F3868C00523D45C
:10289000386820433860FFF7C1F8054638682042A1
:1028A0001AD1FFF7BBF8411B03206429F6D9BEE11A
:1028B000306807994968049A914209D005221204A8
:1028C000914200D0CDE0059989040843306030681A
:1028D000049908433060D3E007988168306D039B0A
:1028E0005F02002900D12BE105221202914200D1A2
:1028F00020E1A14200D037E120433AE131680028CD
:1029000000D1D3E00922914301433160FFF786F8FB
:1029100005463068400700D502E1FFF77FF8411B0C
:1029200003200229F5D982E13168214204D00799B8
:10293000C969002900D17AE1072040037168814309
:10294000079B586A01437160FF21090672688A4338
:10295000196A090689187160400B04998140F06872
:102960000006000FB74A105CC140B7480160B74885
:102970000068FFF7E1FB002800D058E1D3E6B0681B
:1029800007998969002900D1B4E001210843B060AA
:10299000706B084370634803AF490A6802430A60DA
:1029A000FFF73CF80546B068800700D5C8E6FFF79A
:1029B00035F8411B03200229F5D938E1012188436C
:1029C0003065FFF72BF80546306D800700D4AEE682
:1029D000FFF724F8411B03200229F5D927E18143A1
:1029E0003160FFF71BF805463068204200D19AE6B7
:1029F000FFF714F8411B03200229F5D917E107203E
:102A0000400371688143079A506A08437060FF2051
:102A1000000671688143106A00064018706082E603
:102A20000120010632688A4332604706FEF7F6FF4E
:102A30000546022C0AD13068384200D1C4E0FEF7C6
:102A4000EDFF411B03200229F5D9F0E03068384240
:102A500000D194E6FEF7E2FF411B03200229F5D9DD
:102A6000E5E0049A90433060306810400890089880
:102A700005988004326882433260002900D193E0D7
:102A800005984404FEF7CAFF05463068204200D08E
:102A900042E6FEF7C3FF401B6428F6D9032009B0C5
:102AA000F0BD3068C0067DD56548B0E001208143A7
:102AB0003160FEF7B3FF054630684007079B00D43E
:102AC0002EE6FEF7ABFF411B03200229F4D9AEE04E
:102AD0008A02120F584B9A5C0902890F491CF3684D
:102AE000049C234200D08EE03068C00600D489E008
:102AF000534888E001218843B060480356490A687A
:102B000082430A60FEF78AFF0546B068800700D45A
:102B100016E6FEF783FF411B03200229F5D986E064
:102B20001F20000271688143079B18690002084357
:102B30007060F5E5990208433065306D204318E078
:102B4000A04330659802316D81433165FEF766FF21
:102B50000546404C306D38421AD0FEF75FFF411BEE
:102B60000320A142F6D962E0A04330659902306D9E
:102B700088433065FEF752FF0546364C306D3842CB
:102B800006D1FEF74BFF411B0320A142F6D94EE0D0
:102B900002980028079900D0CEE5B06B019A9043C7
:102BA000B063C9E5254832E005984404FEF736FFD6
:102BB00005463068204200D1AEE5FEF72FFF411BED
:102BC00003206429F5D932E0FD200004F168814337
:102BD000079B2C330DCB084310431843F060294862
:102BE000401C316801433160FEF718FF044630682D
:102BF000384200D0C3E5FEF711FF011B0320022974
:102C0000F5D914E00D484243104602F0D3FCF168B8
:102C10000906090F0B4A515CC8400B4908600B4874
:102C20000068FFF789FA0028079B00D178E509B012
:102C3000F0BDC04600127A00645C00080024F40075
:102C400000093D004C5C0008080000200400002042
:102C5000007000408813000020000140401E010E5B
:102C600001D0012070470749074A506007480368B0
:102C70000B4003218907591801600020906007214B
:102C800011607047FFFFFF0010E000E020ED00E062
:102C900010B53822825C012A01D1022010BD024603
:102CA000383202235370006843687024A3430C68D1
:102CB0001C43836844605C4CA04207DC0124A407E9
:102CC000A04209D05B4CA04206D00AE0574CA0427B
:102CD00002D0574CA04204D18024A3434968194331
:102CE0008160002010700121517010BDB0B5002826
:102CF00019D0054638356978002905D10021297099
:102D0000044600F04DF820460221697001680C6805
:102D1000454B994209DC0122920791420BD0454A6A
:102D2000914208D015E00120B0BD404A914202D046
:102D30003F4A91420DD170229443826822439942C6
:102D40000ADC01239B0799420CD03A4B994209D0E7
:102D500024E022469942F4DD344B994202D0344BB0
:102D600099421BD103231B029A4303691343C26890
:102D7000CA6242688A620A68042414430C60012211
:102D80004A618024A343406918430860AA71AA706D
:102D9000EA702A716A716A700020B0BD1346E6E7D6
:102DA00010B500680949884200D010BD0848016884
:102DB00010220A4302601124002120460A46FFF730
:102DC000F5F92046FFF7E6F910BDC04600100040B7
:102DD000381002403921415C012912D101463931B4
:102DE00002220A700068C26801210A43C2600E4ACA
:102DF000904208DC8A0790420BD00E4A904208D0DD
:102E00000CE001207047094A904202D0084A9042E3
:102E100004D1826807231340062B02D002680A43BC
:102E2000026000207047C046FF07014000140140C7
:102E300000080140000400407047F0B585B004462A
:102E40000068C5680227294639404A424A4101695B
:102E5000049139404B424B41134340210291C943F5
:102E60000391002B13D103993E3101610121217699
:102E70008069800703D02046FFF7DEFF05E020468B
:102E800000F094F8204600F092F800202076012609
:102E900004222946114048424841049949073146D5
:102EA00000D50146032000020190002916D10092AE
:102EB000206803993C3101612776806901990842B5
:102EC00003D02046FFF7B8FF05E0204600F06EF87B
:102ED000204600F06CF800202076009A082729464A
:102EE00039404842484104990907314600D5014616
:102EF000002913D120680399383101612276C06915
:102F0000800703D02046FFF797FF05E0204600F03A
:102F10004DF8204600F04BF8002020761021294083
:102F2000484248410499C906314600D50146002966
:102F300014D120680399303101612776C069019965
:102F4000084203D02046FFF777FF05E0204600F057
:102F50002DF8204600F02BF8002020760121294092
:102F6000484248410499C907314600D0014600292A
:102F700006D1206803993F310161204600F018F81E
:102F800002980540684268410499490603D4002E1E
:102F900004D005B0F0BD0646002EFAD12068039992
:102FA0000161204600F072F805B0F0BD704770472F
:102FB000F0B59FB0314802F0B9FA314DA86EFDF777
:102FC000ADFB04460591E86EFDF7A8FB06460F46EB
:102FD000686EFDF7A3FB02460B460094059801A915
:102FE000C1C106AC27492046FDF77EF92046FDF712
:102FF00053FA0021CB4382B22348214600F0B2FAB3
:10300000286C014602F0E6FC696A02F049FC0646BB
:103010006862686C014602F0DDFCA96A02F040FCBF
:103020000746A862A86C014602F0D4FCE96A02F0E7
:1030300037FC0446E862286AFDF76EFC014630461C
:10304000FDF796FB02F0FFFBA865286AFDF764FC1C
:1030500001463846FDF78CFB02F0F5FBE865286A6F
:10306000FDF75AFC01462046FDF782FB02F0EBFB20
:103070002866286A401C28621FB0F0BDE0000020CE
:1030800070000020805C0008A80100207047704795
:1030900070477047F0B587B001210691CF023946DD
:1030A0002F310268D369194020394C1EA14115689F
:1030B00020262C4604963440664266410E439668AC
:1030C00053D0059080300390029739460F310B4260
:1030D00007D0E9482840012731463940081800D078
:1030E00094E0102428462040474247410598006E4E
:1030F0000128069940D0D806069F41D4002F42D01F
:103100000124A005064071427141D802069E00D5F7
:103110000E46002E00D186E08020284041424141E9
:103120001806069A00D50A46002A00D197E14021E8
:103130000D406A426A41580600D50692069800285A
:1031400000D007E1EFF3108584F31088059802683A
:1031500013688B43136085F310880021C1660499BE
:10316000C16700F0C5FA07B0F0BD816E002900D13B
:10317000F0E0884707B0F0BD3946D806069FBDD5B8
:103180000F46002FBCD105990D4658351462906842
:1031900040064FD40694688829886A88002A00D19E
:1031A000D8E0814200D1D5E0EFF31083012282F311
:1031B000108809256D01059C26683768AF43376084
:1031C00083F31088EFF3108382F310882568AE68CC
:1031D0009643AE6083F31088049B039D2B6000230D
:1031E000A3662366EFF3108382F3108822681568C4
:1031F000069EB543156083F3108802226266081AA2
:1032000081B22046FFF743FF07B0F0BD01973802B7
:10321000284046424641D80706985AD100285BD03C
:10322000980761D46BE0200510620598FFF730FF26
:1032300007B0F0BD2A88486F0068436899B200293A
:1032400000D1FEE0914200D3FBE06B800068800675
:1032500034D4EFF31081012080F31088884A2032A3
:10326000059F3B681E6816401E6081F31088EFF3CF
:10327000108180F310883A6893688343936081F3E8
:103280001088EFF3108180F310883A689368402625
:10329000B343936081F310880499039A116000216D
:1032A0003966EFF3108180F3108838680268A24312
:1032B000026081F31088786FFEF78BFA022105987F
:1032C00041662A886988511A89B2FFF7E0FE07B083
:1032D000F0BD30460028A3D1019F1762039E70689D
:1032E0003843706098070AD5002908D00220106280
:1032F0000398466800960426009F3E4346605807A0
:103300000AD5002908D00420106203984668009668
:103310000226009F3E43466021434E424E4118071D
:10332000069900D53146002905D108201062039E78
:10333000716801437160019EB006054069426941B0
:1033400002980342069D07D1002D039D08D06868AE
:1033500000280ED107B0F0BD0D46002D039DF6D11B
:1033600002981062686804990843686068680028D9
:10337000F0D00498034061426141002B00D00691D7
:1033800006980028059806D1816E002903D00446CE
:10339000884720462268696828230B4092684021AC
:1033A0000A40D21805D1FFF774FE0020686007B00C
:1033B000F0BDEFF3108586F31088092252010368EF
:1033C0001C6894431C6085F31088EFF3108486F327
:1033D000108802689368B343936084F31088026E88
:1033E000012A0AD1EFF3108586F31088026813686A
:1033F0001024A343136085F31088049A039B1A607A
:1034000000220266826602689268520630D5EFF3A7
:10341000108486F31088026893688B43936084F36A
:103420001088416F002923D0044614488863084659
:10343000FEF7F0F900288DD0606F816B884707B0E8
:10344000F0BD8A4200D085E70068800600D481E79D
:10345000022205984266FFF71AFE07B0F0BD0598F4
:10346000C16E002900D175E70598884707B0F0BD07
:10347000FFF70FFE07B0F0BD200100044146000831
:10348000DFFEFFFFB0B500281DD00446C06F002846
:1034900005D1782000212154204600F02BF824206B
:1034A000E067206801680125A9430160606A00287F
:1034B00002D0204600F0F2FF204601F0C9F80028B3
:1034C00003D02846B0BD0120B0BD0920C00221684C
:1034D0004A6882434A6088682A2290438860086864
:1034E000012202430A60204601F042F805462846C0
:1034F000B0BD0000B0B586B00024059404940394D8
:103500000294019400681549884201D006B0B0BD0C
:1035100001208103124A93680B43936011680143B1
:10352000116011680140009104200590039402206D
:1035300002900320049040020190009805200007AB
:1035400001A9FEF79FF91B25284621462246FEF7D2
:103550002DFE2846FEF71EFE06B0B0BD0038014025
:103560002C100240F0B585B00446C06F202810D161
:10357000012000290BD0002A09D001200503A668EC
:10358000AE4209D1CE0707D02669002E04D105B07E
:10359000F0BD022005B0F0BD0193029127465037DF
:1035A000204684300021039101602120E067164607
:1035B000FEF734FA04907E803E80A068A84202D1D3
:1035C000206900285ED0029D019E039A21687888B8
:1035D00000285ED0701C454B2ED0002E49D003929F
:1035E000C869000608D4FEF719FA0499401AB042D7
:1035F00066D821680868F3E7002D03D02878886230
:103600006D1C07E0039A1088384B18408862921CA2
:10361000039200257888401E788078880028DFD1C2
:1036200037E0108818408862921C00257888401E78
:103630007880788800282CD0C869000608D4C8692A
:10364000000605D4C869000602D4C8690006F3D58F
:10365000002DE6D0287888626D1CE7E710881840B6
:103660008862921C00257888401E7880788800281F
:103670000FD0C869000621D5002DEFD028788862C8
:103680006D1CF0E70025029A019E216878880028C9
:10369000A0D1CA690020520613D4002E0ED0721C8D
:1036A00013D1CA6952060CD4CA69520609D4CA6930
:1036B000520606D4CA695206F3D502E0FEF7AEF907
:1036C00003202021E16705B0F0BD0546FEF7A6F90D
:1036D0000499401AB042F3D820680168C0694006D6
:1036E000F4D528462021E16705B0F0BDFF010000B8
:1036F0007047FEE780B50748006880694005400FC5
:1037000003D00448FEF7E2F980BD0248FEF71FFA35
:1037100080BDC0465401002080B5806A816B0029BD
:1037200001D000228A6301464031C26B002A01D0D9
:10373000002393634A78602A07D120224A7000222E
:103740000A700263FEF7C0F980BD00220A700263AE
:10375000FEF706FA80BD0000F0B581B0064640369F
:10376000717828220A400568282A1DD1A969AC6908
:10377000AB68EA680092FE22240CC903C90FC7682F
:10378000022F17D1DF0967407C07A40F1ED0009BD2
:103790001340002232702A68B824A2432A601A46D5
:1037A000FEF793F901B0F0BD002030700820E86109
:1037B00001B0F0BD002333702B68B826B3432B60F3
:1037C00014402246FEF781F901B0F0BD826C521C14
:1037D0008264826C022AEBD1054C1A4622400023F7
:1037E000836433700823EB61FEF76FF901B0F0BD1D
:1037F000FF03000070B50446054640356A78002096
:10380000A870504BE3626085636C0B436364697816
:10381000283A022A16D86B7828200340F622D6438D
:103820003246B032282B134600D0334601402829B7
:1038300000D0324621680E6816401E400E60687047
:10384000414829E0697821680A68FE239A430A60A2
:103850008A69920706D48A69D20707D06A78602AF3
:103860000BD119E088628A69D207F7D18A690123EE
:1038700013438B616A78602A0ED020226A708B69AC
:103880009B0609D58B69DB0605D51023CB61636CDC
:1038900004261E436664CA616063A06B226B002825
:1038A0001CD0212A01D0112A18D10A68520404D54B
:1038B000012292030B6893430B60FDF7CEFF0128B2
:1038C0001FD000202870A06B20498163FDF7A2FF64
:1038D000002828D0A06B816B884770BDE06B002862
:1038E0000FD0222A01D0122A0BD10A68120404D563
:1038F0000122D2030B6893430B60FDF7AEFF012852
:1039000012D16878602808D12020687000202870C3
:1039100020632046FEF7D8F870BD00202870206391
:103920002046FEF71DF970BD00202870E06B0749A6
:103930008163FDF76FFF0028F5D0E06B816B88474E
:1039400070BDC0460000FFFFA53E00081937000803
:10395000F0B585B00D46044603681968C06A029048
:1039600026464036777820200390D861F7223A40E7
:10397000F420C043212A019005D0222A05D1074610
:10398000083F222207E0871F05E0282F08D1707822
:10399000019F0A3F0022707818683840186022633F
:1039A0000122D70358680497384358605868BA4FC3
:1039B00007405F609869800711D49869C00713D0E9
:1039C00097034804009716D4049801421CD0186845
:1039D000049FB8431860E76B002F12D114E0002059
:1039E00098629869C007EBD1986910439861970372
:1039F00048040097E8D51868B8431860A76B002FF3
:103A000002D038684068608568070FD5606A5B6AD5
:103A10000370606A401C606204208543238D002B84
:103A200004D0581E2085608D401E6085608D002862
:103A300003D0606C0423034363641027E80643D576
:103A4000394041D0608D00280ED02068C761606C7D
:103A500004210143616491480299014234D1616CAF
:103A60002046FFF7C7FE2FE070788D4B28287FD1C6
:103A70005006029981427BD1E362002020630399C2
:103A800071706063B070690712D5616A2268526A0A
:103A90000A70616A491C6162218D002908D0628D1B
:103AA000521E6285491E2185616C04220A436264AC
:103AB0007178717821680A68FE239A430A60307031
:103AC000CF612046FEF7A8F802970027B77067631A
:103AD000606C002831D0616C2046FFF78BFE707857
:103AE000282866D16E48E062276303987070676388
:103AF000B770680712D5606A2168496A0170606A08
:103B0000401C6062208D002808D0618D491E6185AF
:103B1000401E2085606C04210143616470787078D8
:103B200020680168FE229143016037700299C161EB
:103B30002046FEF771F805B0F0BDE06A584DA84286
:103B40000BD17078039971703770276322282DD1BB
:103B50002046FEF7D1FA05B0F0BD20680168B770C5
:103B6000009A114227D1049A114228D06D4923E0CE
:103B700070782168CF612928A6D102989842A3D0F5
:103B80008869800701D5002088628869C007009B8A
:103B900002D18869104388610A680020B0701A4217
:103BA00045D1049B1A4246D05E4A41E02046FEF7CA
:103BB000A4FA05B0F0BD5A4902680A400260717863
:103BC00029290BD128217170212222633770727844
:103BD0000A40282A10D0019A921C0FE071782A29F5
:103BE0001BD12821717022222263377072780A401B
:103BF000282A0AD0019A0AE0019AB23201681140DB
:103C000001602046FEF779FA07E0019AB0320168B8
:103C1000114001602046FEF76FFAE562039870706C
:103C2000377027632046FDF7F7FF05B0F0BD3C4A2B
:103C30000B6813400B607278292A0BD1282272700E
:103C400021232363307070781040282811D0019808
:103C5000801C10E072782A2A00D035E72822727082
:103C60002223236330707078104028280AD00198EE
:103C70000AE00198B2300A6802400A602046FEF766
:103C80003CFA21E70198B0300A6802400A602046F9
:103C9000FEF732FA18E7C04600E800FEFFFFFFFE1D
:103CA0000000FFFFB0B501680C68024640320023F7
:103CB0009370650403D4240405D5F84C00E0F64C59
:103CC0000D6825400D605478292C0CD1282454709F
:103CD00021250563137053782340F422D243282B07
:103CE00016D0921C15E054782A2C10D12824547038
:103CF00022250563137053782340F422D243282BE6
:103D000000D1B0320B6813400B60FEF7F5F9B0BD7F
:103D1000B2320B6813400B60FEF7EFF9B0BDC0463E
:103D2000FFBFFFFFFF7FFFFFF0B585B00E460446E3
:103D30004030049020688169C90606D400210F46EE
:103D400001258269D30543D446E01021C161816910
:103D5000890635D4711C30D015460120002E6AD159
:103D600086030390C703FDF759FE20684268049953
:103D7000897883693B4209D0324007D1202905D098
:103D8000416831434160FDF749FE0546206881697D
:103D9000890605D4FDF742FE401B1A28F6D375E0CC
:103DA00081698906DFD50BE08169890608D48169BC
:103DB000890605D48169890602D481698906F3D50B
:103DC0002021C1610127042101258269D30503D582
:103DD0002B02C36129432F466B02560506D41A42B3
:103DE0000AD1002F0BD1002005B0F0BDAD02C56196
:103DF000082529431A4202D0C36102221143826975
:103E0000920701D5002282628269D20703D18269BA
:103E10000123134383614268214B13404360606C6C
:103E2000084360642020049948700020087088705E
:103E3000012005B0F0BD810302910390C003019001
:103E4000019F02E081698906BAD4FDF7E7FD411BB5
:103E50002068B142F6D942680499897883693B4267
:103E60000BD0029B1A4008D1202906D04168029A43
:103E700011434160FDF7D2FD05462068816989063E
:103E8000E0D4FDF7CBFD401B1A28F6D320688169EA
:103E90002421039F01258269D30599D49CE7C0465C
:103EA00000E800FEF0B581B04023C45CC36A012C79
:103EB00002D1022001B0F0BD044640340125257036
:103EC0000A4096061CD4D60620D4510732D41107D6
:103ED00000D582E0910715D5418D002900D1CDE0B4
:103EE0000168426A13788B62511C4162018D491E40
:103EF0000185418D491E41850020207001B0F0BD33
:103F0000FFF726FD0020207001B0F0BD428D002A91
:103F100030D001681022CA61416C04220A43426415
:103F20005B490B42EED1416CFFF764FC002020702E
:103F300001B0F0BD418D00290CD0416A0268526A7F
:103F40000A70416A491C4162018D491E0185418DFB
:103F5000491E4185418D0029D4D14E498B42D1D093
:103F600001680B680022A2705D0450D41B0452D576
:103F70004A4B4DE06678474A282E34D16E06B3424C
:103F800031D1C26200220263202363704263A270B7
:103F9000490712D5416A03685B6A0B70416A491C84
:103FA0004162018D002908D0438D5B1E4385491E67
:103FB0000185416C04230B43436461786178016897
:103FC0000B68FE25AB430B6022701022CA61FDF71F
:103FD00023FE0020207001B0F0BDFFF7BDFB0020E4
:103FE000207001B0F0BD667801681027CF61292EDE
:103FF00088D1934286D08A69920701D500228A62CD
:104000008A69D2073ED18A692A438A613AE0224B03
:104010000D681D400D606378292B0CD12823637037
:1040200021250563227065781D40F422D243282D96
:104030001AD0921C19E063782A2B00D062E728235B
:10404000637022250563227065781D40F422D243F7
:10405000282D00D1B0320B6813400B60FEF74CF8EE
:104060000020207001B0F0BDB2320B6813400B602D
:10407000FEF743F80020207001B0F0BD04490B4268
:1040800000D03FE7FFF70EFE0020207001B0F0BD2A
:10409000FFFFFFFE0000FFFFFFBFFFFFFF7FFFFFEF
:1040A000F0B585B00D460446006880690840401AA6
:1040B00041424141002604928A4223D11F460A9A76
:1040C000581C03922BD0002F029433D10026204697
:1040D0003146FFF729FE002828D1FDF79FFC206814
:1040E00081692940491B4A424A4104999142039AF5
:1040F00044D080692840401B414241410498884295
:10410000029CE3D0304605B0F0BD206880692840AD
:10411000401B4142414104988842039AF2D1002653
:10412000F1432046FFF700FE0028EED0012630467E
:1041300005B0F0BD019507E080692840401B414271
:10414000414104988842DDD13446029E30463946CA
:104150001546FFF7E9FD0028E8D1FDF75FFC411B9C
:104160003068B9422A462646019DE5D98169294031
:10417000491B4B424B4104999942DDD1029B1846A1
:104180004030596C20221143596442700021017063
:1041900081700126304605B0F0BDF0B581B005460E
:1041A000006880690024800622D416460F46002944
:1041B00003D129E0806980061AD428463946324660
:1041C000FFF7B2FD002827D1FDF728FC811B2868E6
:1041D000B942EFD981698906ECD428464030696C30
:1041E0002022114369644270002101708170012412
:1041F000204601B0F0BDFDF711FC286881698906F1
:10420000EBD580698006F3D4002428462146324647
:10421000FFF78AFD0028EED00124204601B0F0BD52
:10422000F0B581B00546006880690024800716D487
:1042300016460F46481C19D0002F26D100242846C8
:1042400021463246FFF770FD002838D1FDF7E6FB26
:1042500028688169890728D580698007EED52046BE
:1042600001B0F0BD286880698007F8D40024E143DC
:1042700028463246FFF758FD0028F3D00124204697
:1042800001B0F0BD80698007E9D42846394632463E
:10429000FFF74AFD002812D1FDF7C0FB811B2868FB
:1042A000B942EFD981698907ECD428464030696C5E
:1042B0002022114369644270002101708170012441
:1042C000204601B0F0BDF0B585B0074605200507D2
:1042D000012400260496284621463246FDF796FB27
:1042E000210228463246FDF791FBF806C20F102145
:1042F00003912846FDF78AFBB806C20F20210291E0
:104300002846FDF783FB7806C20F4021019128461D
:10431000FDF77CFBFA09802100912846FDF776FB2A
:104320000226284631462246FDF770FB2046FDF75F
:1043300097FA28463146049AFDF768FB2046FDF7B8
:104340008FFA3A46224028460399FDF75FFBB807EB
:10435000C20F28460299FDF759FBBA080392224082
:1043600028460199FDF752FB3807C20F28460099ED
:10437000FDF74CFB284631462246FDF747FB204619
:10438000FDF76EFA28463146049AFDF73FFB2046BA
:10439000FDF766FA0398002801D005B0F0BD0220B1
:1043A000FDF75EFA05B0F0BDF0B585B00746052013
:1043B00005070124284621462246FDF727FB210256
:1043C000002204922846FDF721FBF806C20F1021B7
:1043D00003912846FDF71AFBB806C20F202102916F
:1043E0002846FDF713FB7806C20F402101912846AD
:1043F000FDF70CFBFA09802100912846FDF706FB2A
:104400000226284631462246FDF700FB2046FDF7EE
:1044100027FA28463146049AFDF7F8FA2046FDF7B8
:104420001FFA3A46224028460399FDF7EFFAB807EB
:10443000C20F28460299FDF7E9FA7807C20F28460D
:104440000199FDF7E3FA3807C20F28460099FDF7F6
:10445000DDFA284631462246FDF7D8FA2046FDF718
:10446000FFF928463146049AFDF7D0FA2046FDF7B9
:10447000F7F92046FDF7F4F905B0F0BDFEE7704707
:10448000704780B5FDF73AFE80BD704780B50248A1
:10449000FEF7D3FC80BDC04614010020B0B5416AD0
:1044A0000A070CD4CA0714D18A071CD44A0724D49B
:1044B000CA062CD48A0634D44A063CD44CE00122E5
:1044C000D20303685C689443426B22435A60CA0774
:1044D000EAD00122520403685C689443826A224352
:1044E0005A608A07E2D50122120403685C6894438B
:1044F000C26A22435A604A07DAD50122920403684D
:104500005C689443026B22435A60CA06D2D50122EA
:10451000120303689C689443826B22439A608A0664
:10452000CAD50122520303689C689443C26B22439C
:104530009A604A0610D501221305026854689C430C
:10454000056C2C4354609D4206D103235B055468DF
:104550009C43436C23435360090607D50121C904DA
:10456000026853688B43806C18435060B0BD0000F4
:10457000F0B583B00446064678360025F560FDF7B1
:104580004DFA034620680168090721D502952B489A
:10459000009001256905002220461F4600F06EF9B3
:1045A000002812D0EFF3108085F3108821680A6884
:1045B00080239A430A6080F31088032020227C2104
:1045C000029D6250357003B0F0BD20683B46029DED
:1045D0000068400726D5194800900127B905002238
:1045E000204600F04BF900281CD0EFF3108087F331
:1045F000108809214901226813688B43136080F3F6
:104600001088EFF3108087F3108821688A68BA4316
:104610008A6080F310880320202280216250357048
:1046200003B0F0BD2020E067B060256664212A4613
:1046300028466250357003B0F0BDC046FFFFFF0151
:1046400080B5806A5A2100224252FEF722FD80BDC9
:10465000F0B581B0044601680868764A0240A06857
:1046600023690343606918431043E26910430860FB
:10467000032630034B688343E06818434860A5690C
:104680006D4B994202D0206A284300E028460B2552
:104690002D028F68AF4307438F606848814214DD65
:1046A0000027674881421FD0664881421CD0664877
:1046B000814243D16648C06C8007000F66A52F5821
:1046C0000125E803994213D13DE06048814205D0BD
:1046D000994233D15E48C06C000A01E05C48C06C6E
:1046E0000C2505405B4847590125E80399422AD02B
:1046F000824212D1082F00D996E0C0467F443F790C
:104700007F00BF44043C4691529191917300FDF7A4
:1047100089FF002800D069E085E0082F00D983E0F8
:104720007F443F797F00BF44042F3A7F457F7F7FDE
:104730007200FDF777FF002869D174E0102701258A
:10474000E8039942D4D1082F6ED8C0467F443F7900
:104750007F00BF44046909690F6969693500FDF785
:1047600061FF00282CD15EE039480068C00626D5DC
:104770003E4825E0FDF770FF002821D153E0FDF70A
:104780005BFF002832D14EE0FDF756FF00283ED1F6
:1047900049E02F480068C00627D5344826E02C4859
:1047A0000068C00632D5314831E0FDF755FF0028DA
:1047B0001CD138E0FDF750FF002828D133E02A480B
:1047C00062685643B0422FD3110388422CD8010EA1
:1047D00056080002002380195941FBF7FDFC2549CA
:1047E0004118254A91421CD31EE01F4840006168D1
:1047F0004A08101800F0DEFE0246103A1C498A42B0
:1048000012D201400007400F08430AE016486168D1
:104810004A08101800F0CEFE01461039144A9142A1
:1048200002D22168C86000250020A066E066284604
:1048300001B0F0BDF369FFEF00480040FF4B0040BE
:10484000004C00400050004000380140004400404F
:1048500000100240705C000801000000040000002D
:1048600002000000080000000024F40000093D00E0
:10487000F0FF000000FDFFFF00FD0F00F0B585B068
:104880001F4615460E460368D9693140891B4A42C6
:104890004A410021954222D10A9C002C22D003914A
:1048A000611C24D1D9693140891B4A424A41954251
:1048B00031D1D9693140891B4A424A4195422AD1B6
:1048C000D9693140891B4A424A41954223D1D9696D
:1048D0003140891B4A424A419542E3D01BE00846D9
:1048E00005B0F0BDFDF79AF8032005B0F0BD402EED
:1048F000049001D0802E14D1FDF790F8C01BA04287
:104900000CD8049800680168C0693040801B41429F
:1049100041418D42F0D0039805B0F0BD032005B0B1
:10492000F0BD7830019001200090C002029006E0B6
:10493000C8693040801B414241418D42EBD1FDF7B7
:104940006DF8C11B0320A1423ED8049909680A688A
:104950005207EDD5CA69120738D4CA69029B1A42B8
:10496000E6D0029A0A62EFF31082012181F31088E7
:1049700009235B01049C246825689D43256082F31C
:104980001088EFF3108281F31088049B1B689C68E9
:104990008C439C60049B82F310881A6E012A0BD111
:1049A000EFF3108281F3108819680B681024A34379
:1049B0000B60049B82F310882021019CA1600022DF
:1049C0001A669A662270E16005B0F0BD08250D6296
:1049D000EFF31081009880F3108809225201049BA4
:1049E0001B681C6894431C6081F31088EFF31081EE
:1049F00080F31088049A1268936883439360049B41
:104A000081F31088196E01290CD1EFF31081012276
:104A100082F310881A6813681024A3431360049B60
:104A200081F310882021019A91600021196699660E
:104A30001170D56005B0F0BD80B50248FEF72AFBC5
:104A400080BDC046A8010020A8B0FDF761FB1AA8F0
:104A50000A903821FBF760FD0025199518951795E8
:104A6000169515950BA82821FBF756FD03200990F4
:104A7000C00278490A6882437D2008900701D01956
:104A80003030086024950524600323902295012688
:104A9000219610201A900A98FDF71AFE002803D0DC
:104AA000EFF3108072B6FEE70A9406960597169506
:104AB0000F20159017951895199515A82946FDF7FB
:104AC000ADFC002803D0EFF3108072B6FEE711951D
:104AD0000E9509200B900BA8FDF784FB002803D04E
:104AE000EFF3108072B6FEE71E951D951C951B9581
:104AF0001A95594801680422079211430160016820
:104B000011400B910B9901688022114301600168EB
:104B1000039211400B910B990168069C214301609F
:104B2000016821400B910B99016802220492114304
:104B30000160006810400B900B980A9800070A90DB
:104B4000FF27F43739462A46FCF760FF1C952120E1
:104B500000041B9060031A9040481AAE3146FCF7DF
:104B600091FE1D951C951B941A970A9C2046314670
:104B7000FCF788FE07981E9009981D901C950498D4
:104B80001B900C271A9720463146FCF77BFEF44811
:104B9000E1214902F34A026041608560C560056118
:104BA00047618561C56105624562FEF76BFC0028BF
:104BB00003D0EFF3108072B6FEE7039FEA48EB499B
:104BC00022C00560069C44608560C5600561456142
:104BD00085610838FCF7C6FF002803D0EFF310808A
:104BE00072B6FEE7E0480021FCF71EFF002803D064
:104BF000EFF3108072B6FEE7DB4800252946FCF78C
:104C000034FF002803D0EFF3108072B6FEE72003D4
:104C1000FCF74CFFD64EB7646920D6497163059CFA
:104C2000B463F56330641B951A9534363046FEF74D
:104C30005DF8002803D0EFF3108072B6FEE71AA9E2
:104C40003046FEF725F800280AD0EFF3108072B640
:104C5000FEE7C046007000402C10024000080050E3
:104C60003046FEF7B7F80698FFF72DFB0220FCF759
:104C7000F7FD8020FFF727FB4D20FFF795FB502025
:104C8000FFF792FB5520FFF78FFB3620FFF78CFBD9
:104C900030263046FFF788FB3520FFF785FB30468E
:104CA000FFF782FB2020FFF77FFB4120FFF77CFB13
:104CB00063263046FFF778FB3046FFF775FB65202B
:104CC000FFF772FB6C20FFF76FFBC020FFF7FBFACA
:104CD0005320FFF769FB74263046FFF765FB612020
:104CE000FFF762FB7220FFF75FFB3046FFF75CFBCC
:104CF0006920FFF759FB6E20FFF756FB6720FFF78F
:104D000053FB2E263046FFF74FFB3046FFF74CFB98
:104D10003046FFF749FB9848FCF7A2FD00F00CFB7A
:104D20001AAE3570EF430096069B019302970797E2
:104D30008D480A95D02103916B2204921D46FDF700
:104D400087F8099830700096019502978648039F6E
:104D50003946049A2B46FDF77BF80A983070009686
:104D60000195079802901C227F4839462B46FDF793
:104D70006FF80A983070009601952B460546079803
:104D800002901A2278483946FDF762F88B20C00558
:104D90007A4908632F4609950A9505940798029069
:104DA0000620069001901AAD0095D0213B220123E8
:104DB00004936D48FCF732FF68781A9909020E18BF
:104DC0006E4A1680E878A97809020C185480687930
:104DD0001B9909020D1895800498FCF741FD28B233
:104DE0000A9D2D1820B2059C3F1830B20999091868
:104DF0000991641ED0D1089806012846314600F07A
:104E0000FBFBF34CE0633846314600F0F5FBA06352
:104E10000998314600F0F0FB60630798029006980D
:104E200001901AAD0095D0213B2201234E48FCF79A
:104E3000F5FE68781A9909020F18E54C2780E87882
:104E4000A97809020E18668068791B99090208186A
:104E5000A080A18F401A00B2FBF75EFD256B2946AA
:104E6000FBF786FC0A90A064208F301A00B2FBF793
:104E700053FD2946FBF77CFC06466064A08E381A79
:104E800000B2FBF749FD2946FBF772FC0746206498
:104E9000A568294600F0B8FC002802D1EE488760DA
:104EA0003D46ED48C4683846214600F0B8FC00286D
:104EB00002D1E948C7603C462046294600F0E2FDA1
:104EC000E549C8640D693046294600F09DFC00287C
:104ED00002D1E14806613546DF4844693046214643
:104EE00000F09DFC002802D1DB4846613446204694
:104EF000294600F0C7FDD84908658C690A9D2846F7
:104F0000214600F081FC002802D1D34885612C465F
:104F10000994FF48C4692846214600F080FC002817
:104F200002D1FB48C5612C461548054006400740A4
:104F3000F7482946054647668666C16620460999B0
:104F400000F0A0FD6865286A1E2800DA65E700F019
:104F500085F90020EE49086248628862C8625CE711
:104F6000A8010020003801405401002000540040F6
:104F7000E000002000100040B80B0000700000208E
:104F8000FFFFFF7FF0B581B00446807A002800D093
:104F9000ACE00125A572E169012913DBE068236912
:104FA0006269805C491EE161591E8A4204DB00216E
:104FB0006161012804D005E0511C6161012801D123
:104FC00001206070207A07E0204600F07BFA022082
:104FD00020702572284666700026268101462940E9
:104FE00061722178491E052962D8C0467944097941
:104FF00049008F44023408290537C00758D054E0CF
:10500000C00749D154E0C00752D02670204600F0B6
:10501000E1F8204600F07AFA667204272780207AA9
:10502000C00748D0280220812078032828D1267084
:10503000204600F0CFF8204600F068FA667227801C
:10504000207AC007EED136E0C00731D16078012860
:105050002ED12670204600F081FA0620B8E7C0075E
:1050600026D01CE0C00723D0267060681E2804D11B
:10507000204600F0F3F80520AAE7401C6060A3E793
:10508000401E052814D8C046784400794000874463
:105090000C060F0F0302E7E76660267094E72670A0
:1050A000204600F025F8032092E7002020708BE7CF
:1050B000002060726070E069012815DBE1682369F7
:1050C0006269895C401EE0615B1E00209A4204DB3D
:1050D00002466261012904D006E0521C6261012986
:1050E00002D10126667077E70020A07201B0F0BD02
:1050F000F0B581B0864CA08FA188081A00B2FBF7EA
:105100000BFC266B3146FBF733FB0090A064208F2D
:105110006188081A00B2FBF7FFFB3146FBF728FB5A
:1051200005466064A08E2188081A00B2FBF7F4FBE4
:105130003146FBF71DFB06462064A768394600F0A0
:1051400063FB002802D1F74886603746F548C468FB
:105150003046214600F063FB002802D1F148C660CA
:1051600034462046394600F08DFCEE4FF8643E6927
:105170002846314600F048FB002801D13D612E460B
:105180007C692846214600F04AFB002801D17D6158
:105190002C462046314600F075FC3865BD69009EFE
:1051A0003046294600F030FB002801D1BE6135466B
:1051B000FC693046214600F032FB002801D1FE6137
:1051C00034462046294600F05DFC786501B0F0BD0C
:1051D00070000020F0B581B0F34F386C014600F04C
:1051E000F9FB796A00F05CFB06467862786C014650
:1051F00000F0F0FBB96A00F053FB0546B862B86CEA
:10520000014600F0E7FBF96A00F04AFB0446F86249
:10521000386AFBF781FB01463046FBF7A9FA00F03C
:1052200012FBB865386AFBF777FB01462846FBF7A7
:105230009FFA00F008FBF865386AFBF76DFB014642
:105240002046FBF795FA00F0FEFA3866386A401CF3
:10525000386201B0F0BDC04670000020B0B58AB021
:105260000120FFF730F80220FCF7FAFA8020FFF760
:105270002AF8274DA86DFBF751FA02460B466C46FB
:1052800024A12046FBF730F82078002809D0694691
:105290004C1CC0B2FFF788F8611C207800280C462F
:1052A000F7D1C020FFF70FF8E86DFBF737FA024699
:1052B0000B466C461AA12046FBF716F8207800280A
:1052C00009D069464C1CC0B2FFF76EF8611C20780B
:1052D00000280C46F7D10020FEF7F5FF286EFBF7FB
:1052E0001DFA02460B466C4610A12046FAF7FCFF59
:1052F0002078002809D069464C1CC0B2FFF754F84A
:10530000611C207800280C46F7D10AB0B0BDC04619
:105310007000002041783D252D362E3266000000B9
:1053200041793D252D362E3266000000417A3D251B
:105330002D362E3266000000F0B585B03220FCF725
:105340008FFA052000900507012421020026284637
:105350003246FCF75BFB284621463246FCF756FBFB
:105360001021019128462246FCF750FB2021029192
:1053700028462246FCF74AFB402104912846324643
:10538000FCF744FB8021039128463246FCF73EFBA4
:105390000227284639462246FCF738FB2046FCF710
:1053A0005FFA284639463246FCF730FB2046FCF7C8
:1053B00057FA0098FCF754FA284601992246FCF760
:1053C00025FB284602992246FCF720FB2846049933
:1053D0003246FCF71BFB284603993246FCF716FBC6
:1053E000284639462246FCF711FB2046FCF738FADE
:1053F000284639463246FCF709FB2046FCF730FACE
:105400000098FCF72DFA284601992246FCF7FEFA8F
:10541000284602992246FCF7F9FA284604993246B2
:10542000FCF7F4FA284603993246FCF7EFFA2846CF
:1054300039462246FCF7EAFA2046FCF711FA2846DC
:1054400039463246FCF7E2FA2046FCF709FA2046D4
:10545000FCF706FA284601993246FCF7D7FA2846A7
:1054600002992246FCF7D2FA284604993246FCF704
:10547000CDFA284603993246FCF7C8FA2846394641
:105480002246FCF7C3FA2046FCF7EAF928463946DB
:105490003246FCF7BBFA2046FCF7E2F92046FCF75F
:1054A000DFF92820FEF70FFF0C20FEF70CFF062087
:1054B000FEF709FF2046FEF706FF3846FCF7D0F955
:1054C00005B0F0BD10B586B00020C04302900620A4
:1054D000019004AC00940C48D0213B220123FCF73E
:1054E0009DFB60780499090208182F490880E0782C
:1054F000A2781202101848806079059A12021018DA
:10550000888006B010BDC0465401002010B5264862
:10551000034640330ECB044C2140224023406430EC
:105520000EC010BD70000020FFFFFF7F80B5016935
:10553000C2698A420FD08169C26801235354C1698C
:10554000491CC16101694A1E8169914201DB002148
:1055500000E0491C8161FFF715FD80BDF0B59FB0EB
:10556000114CA06EFBF7DAF805900D46E06EFBF7E4
:10557000D5F806460F46606EFBF7D0F802460B469C
:10558000059800A9E1C106AC08492046FAF7ACFE2F
:105590002046FAF781FF0021CB4382B2044821461E
:1055A000FDF7E0FF1FB0F0BD70000020805C000838
:1055B000A801002043088B421AD3002203098B4222
:1055C00079D3030A8B425ED3030B8B4242D3030C85
:1055D0008B4227D30902FF2212BA030C8B4202D35B
:1055E0001212090203D0030B8B4233D31AE0D3E02B
:1055F000411A8041401C704703460B4371D4430855
:105600008B42F5D3002203098B4254D3030A8B4209
:1056100039D3030B8B421DD3030C8B4202D3944628
:105620006EE0090AC30B8B4201D3CB03C01A52416F
:10563000830B8B4201D38B03C01A5241430B8B4225
:1056400001D34B03C01A5241030B8B4201D30B030E
:10565000C01A5241C30A8B4201D3CB02C01A524135
:10566000830A8B4201D38B02C01A5241430A8B42F8
:1056700001D34B02C01A5241030A8B4201D30B02E1
:10568000C01A5241CDD2C3098B4201D3CB01C01AFB
:10569000524183098B4201D38B01C01A5241430905
:1056A0008B4201D34B01C01A524103098B4201D3F3
:1056B0000B01C01A5241C3088B4201D3CB00C01A60
:1056C000524183088B4201D38B00C01A52414308D8
:1056D0008B4201D34B00C01A5241411A5241100073
:1056E0007047CA0F00D04942031000D340425340D4
:1056F00000229C4603098B422DD3030A8B4212D30E
:105700008901FC2212BA030A8B420CD3890192113F
:105710008B4208D3890192118B4204D3890137D07F
:10572000921100E08909C3098B4201D3CB01C01A51
:10573000524183098B4201D38B01C01A5241430964
:105740008B4201D34B01C01A524103098B4201D352
:105750000B01C01A5241C3088B4201D3CB00C01ABF
:10576000524183088B4201D38B00C01A5241D9D2D7
:1057700043088B4201D34B00C01A5241411A00D258
:1057800001465241104663465B1000D340427047C9
:1057900063465B1000D3404201B50021004201D0B6
:1057A000C9430846C046C04602BDF8B5040C8BB2DA
:1057B000264682B25E43104658430D0C370C360421
:1057C00000218019164679416E43370C3604801942
:1057D000264679416E438919F8BD00004900CA0286
:1057E0000243100000D004204A0D01D001221043D2
:1057F000044A490D914201D102210843012800D1F8
:1058000005207047FF07000010B500F08FF8EFF398
:105810000080800001D5012010BD002010BD10B512
:1058200000F0AEF8EFF300804000800F012801D0B7
:10583000012010BD002010BD30380A2801D20120FF
:1058400070470020704770B50546FBF7A3FA41008A
:105850000446FF204908C005411AC90F07D0690056
:105860004908401AC00F02D10120FBF765F8204615
:1058700070BD000010B500290AD00878002807D0B4
:1058800005487844FBF7F6FE002801D0002010BD43
:105890000248784410BD00003A04000032040000C1
:1058A00070B50125ED0704004C4020D4441A01D204
:1058B000001B0919C60D4B00F2B2FF2A29D01B0E9E
:1058C0002CD000020C0228432C43D31ADC400519CB
:1058D00010D2280A02D3401C6D0611D0761EF605A0
:1058E0008019FF2A00DA70BDC00DC00570BD694087
:1058F00000F0CEF801200543C541521C761CE8E7B4
:1059000064089C40C90161408900E7D10124A0439B
:10591000E4E71B0E440200D0034870BD002AFCD10E
:10592000C00FC00770BD00BF0000C07F0123DB05B2
:1059300002000A430DD4DA4203D49A4207D48842C3
:105940007047D84214D4D94212D48842704780425A
:105950007047DA4203D59A42F9D5814270475B001D
:105960004200DA4204D24A00DA4201D28142704750
:1059700010B5024AFBF720FE10BD00BF090013045A
:105980000123DB0502000A430DD4DA4203D49A4214
:1059900007D488427047D84214D4D94212D48842DE
:1059A000704780427047DA4203D59A42F9D5814266
:1059B00070475B004200DA4204D24A00DA4201D268
:1059C0008142704710B5024AFBF7F6FD10BD00BFDB
:1059D0000900160470B5420064414B005C41120E90
:1059E00039D01B0E38D0FF2A3CD0FF2B3AD0D2182A
:1059F0007F3A40024902400A490A4518ED01060073
:105A00004E43000A090A48430104731A4019190C4D
:105A10004318990F04D05B08012149075B1A521CF7
:105A2000D80904D3401CF50301D19D0607D0FF2AF5
:105A300008D2D50506D0E4072043401970BD0125E2
:105A4000A843F4E7002A01DCE00770BD2402FF2030
:105A50002043C00570BD1B0EFF2A03D0FF2B01D0D1
:105A6000E00770BDFF2636064500B54206D84D005A
:105A7000B54203D8D218FF2A00D0E7E7004870BD2E
:105A80000000C07F70B50125ED0704004C4022D412
:105A9000441A02D26C40001B0919C60D4B00F2B229
:105AA000FF2A4BD01B0E50D000020C02A8432C43FF
:105AB000D31ADC40051B05D5AD0019D36D08761E41
:105AC000521E37D0F605280A01D2801970BD7041E8
:105AD0006D0603D070BD6940FFF7E8FE9C400902E7
